{
  "contractName": "AccessControl",
  "abi": [
    {
      "inputs": [],
      "stateMutability": "nonpayable",
      "type": "constructor"
    },
    {
      "inputs": [
        {
          "internalType": "address",
          "name": "",
          "type": "address"
        }
      ],
      "name": "admins",
      "outputs": [
        {
          "internalType": "bool",
          "name": "",
          "type": "bool"
        }
      ],
      "stateMutability": "view",
      "type": "function"
    },
    {
      "inputs": [
        {
          "internalType": "address",
          "name": "account",
          "type": "address"
        }
      ],
      "name": "addAdmin",
      "outputs": [],
      "stateMutability": "nonpayable",
      "type": "function"
    },
    {
      "inputs": [
        {
          "internalType": "address",
          "name": "account",
          "type": "address"
        }
      ],
      "name": "removeAdmin",
      "outputs": [],
      "stateMutability": "nonpayable",
      "type": "function"
    }
  ],
  "bytecode": "0x608060405234801561001057600080fd5b50336000908152602081905260409020805460ff191660011790556101ef8061003a6000396000f3fe608060405234801561001057600080fd5b50600436106100415760003560e01c80631785f53c14610046578063429b62e51461005b5780637048027514610092575b600080fd5b61005961005436600461018b565b6100a5565b005b61007e61006936600461018b565b60006020819052908152604090205460ff1681565b604051901515815260200160405180910390f35b6100596100a036600461018b565b610119565b3360009081526020819052604090205460ff166100f85760405162461bcd60e51b815260206004820152600c60248201526b2737ba1030b71030b236b4b760a11b60448201526064015b60405180910390fd5b6001600160a01b03166000908152602081905260409020805460ff19169055565b3360009081526020819052604090205460ff166101675760405162461bcd60e51b815260206004820152600c60248201526b2737ba1030b71030b236b4b760a11b60448201526064016100ef565b6001600160a01b03166000908152602081905260409020805460ff19166001179055565b60006020828403121561019c578081fd5b81356001600160a01b03811681146101b2578182fd5b939250505056fea264697066735822122035b4bde32406e9c516995737bb2c9f520dd4de84f71122e08f7a35a0e6ad834364736f6c63430008040033",
  "immutableReferences": {},
  "source": "// SPDX-License-Identifier: MIT\r\npragma solidity ^0.8.0;\r\n\r\ncontract AccessControl {\r\n    mapping(address => bool) public admins;\r\n\r\n    constructor() {\r\n        admins[msg.sender] = true;\r\n    }\r\n\r\n    modifier onlyAdmin() {\r\n        require(admins[msg.sender], \"Not an admin\");\r\n        _;\r\n    }\r\n\r\n    function addAdmin(address account) external onlyAdmin {\r\n        admins[account] = true;\r\n    }\r\n\r\n    function removeAdmin(address account) external onlyAdmin {\r\n        admins[account] = false;\r\n    }\r\n}\r\n",
  "sourcePath": "C:\\blockchain\\recursos\\contract\\contracts\\AccessControl.sol",
  "compiler": {
    "name": "solc",
    "version": "0.8.4+commit.c7e474f2.Emscripten.clang"
  },
  "schemaVersion": "3.4.16",
  "updatedAt": "2024-06-26T19:22:04.413Z",
  "devdoc": {
    "kind": "dev",
    "methods": {},
    "version": 1
  },
  "userdoc": {
    "kind": "user",
    "methods": {},
    "version": 1
  }
}