{
  "contractName": "BuildingToken",
  "abi": [
    {
      "inputs": [],
      "stateMutability": "nonpayable",
      "type": "constructor"
    },
    {
      "anonymous": false,
      "inputs": [
        {
          "indexed": true,
          "internalType": "address",
          "name": "owner",
          "type": "address"
        },
        {
          "indexed": true,
          "internalType": "address",
          "name": "approved",
          "type": "address"
        },
        {
          "indexed": true,
          "internalType": "uint256",
          "name": "tokenId",
          "type": "uint256"
        }
      ],
      "name": "Approval",
      "type": "event"
    },
    {
      "anonymous": false,
      "inputs": [
        {
          "indexed": true,
          "internalType": "address",
          "name": "owner",
          "type": "address"
        },
        {
          "indexed": true,
          "internalType": "address",
          "name": "operator",
          "type": "address"
        },
        {
          "indexed": false,
          "internalType": "bool",
          "name": "approved",
          "type": "bool"
        }
      ],
      "name": "ApprovalForAll",
      "type": "event"
    },
    {
      "anonymous": false,
      "inputs": [
        {
          "indexed": true,
          "internalType": "address",
          "name": "from",
          "type": "address"
        },
        {
          "indexed": true,
          "internalType": "address",
          "name": "to",
          "type": "address"
        },
        {
          "indexed": true,
          "internalType": "uint256",
          "name": "tokenId",
          "type": "uint256"
        }
      ],
      "name": "Transfer",
      "type": "event"
    },
    {
      "inputs": [],
      "name": "admin",
      "outputs": [
        {
          "internalType": "address",
          "name": "",
          "type": "address"
        }
      ],
      "stateMutability": "view",
      "type": "function",
      "constant": true
    },
    {
      "inputs": [
        {
          "internalType": "address",
          "name": "to",
          "type": "address"
        },
        {
          "internalType": "uint256",
          "name": "tokenId",
          "type": "uint256"
        }
      ],
      "name": "approve",
      "outputs": [],
      "stateMutability": "nonpayable",
      "type": "function"
    },
    {
      "inputs": [
        {
          "internalType": "address",
          "name": "owner",
          "type": "address"
        }
      ],
      "name": "balanceOf",
      "outputs": [
        {
          "internalType": "uint256",
          "name": "",
          "type": "uint256"
        }
      ],
      "stateMutability": "view",
      "type": "function",
      "constant": true
    },
    {
      "inputs": [
        {
          "internalType": "uint256",
          "name": "tokenId",
          "type": "uint256"
        }
      ],
      "name": "getApproved",
      "outputs": [
        {
          "internalType": "address",
          "name": "",
          "type": "address"
        }
      ],
      "stateMutability": "view",
      "type": "function",
      "constant": true
    },
    {
      "inputs": [
        {
          "internalType": "address",
          "name": "owner",
          "type": "address"
        },
        {
          "internalType": "address",
          "name": "operator",
          "type": "address"
        }
      ],
      "name": "isApprovedForAll",
      "outputs": [
        {
          "internalType": "bool",
          "name": "",
          "type": "bool"
        }
      ],
      "stateMutability": "view",
      "type": "function",
      "constant": true
    },
    {
      "inputs": [],
      "name": "name",
      "outputs": [
        {
          "internalType": "string",
          "name": "",
          "type": "string"
        }
      ],
      "stateMutability": "view",
      "type": "function",
      "constant": true
    },
    {
      "inputs": [],
      "name": "nextTokenId",
      "outputs": [
        {
          "internalType": "uint256",
          "name": "",
          "type": "uint256"
        }
      ],
      "stateMutability": "view",
      "type": "function",
      "constant": true
    },
    {
      "inputs": [
        {
          "internalType": "uint256",
          "name": "tokenId",
          "type": "uint256"
        }
      ],
      "name": "ownerOf",
      "outputs": [
        {
          "internalType": "address",
          "name": "",
          "type": "address"
        }
      ],
      "stateMutability": "view",
      "type": "function",
      "constant": true
    },
    {
      "inputs": [
        {
          "internalType": "address",
          "name": "from",
          "type": "address"
        },
        {
          "internalType": "address",
          "name": "to",
          "type": "address"
        },
        {
          "internalType": "uint256",
          "name": "tokenId",
          "type": "uint256"
        }
      ],
      "name": "safeTransferFrom",
      "outputs": [],
      "stateMutability": "nonpayable",
      "type": "function"
    },
    {
      "inputs": [
        {
          "internalType": "address",
          "name": "from",
          "type": "address"
        },
        {
          "internalType": "address",
          "name": "to",
          "type": "address"
        },
        {
          "internalType": "uint256",
          "name": "tokenId",
          "type": "uint256"
        },
        {
          "internalType": "bytes",
          "name": "_data",
          "type": "bytes"
        }
      ],
      "name": "safeTransferFrom",
      "outputs": [],
      "stateMutability": "nonpayable",
      "type": "function"
    },
    {
      "inputs": [
        {
          "internalType": "address",
          "name": "operator",
          "type": "address"
        },
        {
          "internalType": "bool",
          "name": "approved",
          "type": "bool"
        }
      ],
      "name": "setApprovalForAll",
      "outputs": [],
      "stateMutability": "nonpayable",
      "type": "function"
    },
    {
      "inputs": [
        {
          "internalType": "bytes4",
          "name": "interfaceId",
          "type": "bytes4"
        }
      ],
      "name": "supportsInterface",
      "outputs": [
        {
          "internalType": "bool",
          "name": "",
          "type": "bool"
        }
      ],
      "stateMutability": "view",
      "type": "function",
      "constant": true
    },
    {
      "inputs": [],
      "name": "symbol",
      "outputs": [
        {
          "internalType": "string",
          "name": "",
          "type": "string"
        }
      ],
      "stateMutability": "view",
      "type": "function",
      "constant": true
    },
    {
      "inputs": [
        {
          "internalType": "uint256",
          "name": "tokenId",
          "type": "uint256"
        }
      ],
      "name": "tokenURI",
      "outputs": [
        {
          "internalType": "string",
          "name": "",
          "type": "string"
        }
      ],
      "stateMutability": "view",
      "type": "function",
      "constant": true
    },
    {
      "inputs": [
        {
          "internalType": "address",
          "name": "from",
          "type": "address"
        },
        {
          "internalType": "address",
          "name": "to",
          "type": "address"
        },
        {
          "internalType": "uint256",
          "name": "tokenId",
          "type": "uint256"
        }
      ],
      "name": "transferFrom",
      "outputs": [],
      "stateMutability": "nonpayable",
      "type": "function"
    },
    {
      "inputs": [
        {
          "internalType": "address",
          "name": "to",
          "type": "address"
        }
      ],
      "name": "mint",
      "outputs": [],
      "stateMutability": "nonpayable",
      "type": "function"
    }
  ],
  "bytecode": "0x60806040523480156200001157600080fd5b50604080518082018252600d81526c213ab4b63234b733aa37b5b2b760991b602080830191825283518085019094526002845261109560f21b908401528151919291620000619160009162000092565b5080516200007790600190602084019062000092565b5050600780546001600160a01b031916331790555062000175565b828054620000a09062000138565b90600052602060002090601f016020900481019282620000c457600085556200010f565b82601f10620000df57805160ff19168380011785556200010f565b828001600101855582156200010f579182015b828111156200010f578251825591602001919060010190620000f2565b506200011d92915062000121565b5090565b5b808211156200011d576000815560010162000122565b600181811c908216806200014d57607f821691505b602082108114156200016f57634e487b7160e01b600052602260045260246000fd5b50919050565b6114d980620001856000396000f3fe608060405234801561001057600080fd5b50600436106101005760003560e01c806370a0823111610097578063b88d4fde11610066578063b88d4fde14610213578063c87b56dd14610226578063e985e9c514610239578063f851a4401461027557600080fd5b806370a08231146101ce57806375794a3c146101ef57806395d89b41146101f8578063a22cb4651461020057600080fd5b806323b872dd116100d357806323b872dd1461018257806342842e0e146101955780636352211e146101a85780636a627842146101bb57600080fd5b806301ffc9a71461010557806306fdde031461012d578063081812fc14610142578063095ea7b31461016d575b600080fd5b6101186101133660046111d1565b610288565b60405190151581526020015b60405180910390f35b6101356102da565b60405161012491906112b9565b610155610150366004611209565b61036c565b6040516001600160a01b039091168152602001610124565b61018061017b3660046111a8565b610406565b005b61018061019036600461105e565b61051c565b6101806101a336600461105e565b61054d565b6101556101b6366004611209565b610568565b6101806101c9366004611012565b6105df565b6101e16101dc366004611012565b610653565b604051908152602001610124565b6101e160065481565b6101356106da565b61018061020e36600461116e565b6106e9565b610180610221366004611099565b6106f8565b610135610234366004611209565b610730565b61011861024736600461102c565b6001600160a01b03918216600090815260056020908152604080832093909416825291909152205460ff1690565b600754610155906001600160a01b031681565b60006001600160e01b031982166380ac58cd60e01b14806102b957506001600160e01b03198216635b5e139f60e01b145b806102d457506301ffc9a760e01b6001600160e01b03198316145b92915050565b6060600080546102e9906113de565b80601f0160208091040260200160405190810160405280929190818152602001828054610315906113de565b80156103625780601f1061033757610100808354040283529160200191610362565b820191906000526020600020905b81548152906001019060200180831161034557829003601f168201915b5050505050905090565b6000818152600260205260408120546001600160a01b03166103ea5760405162461bcd60e51b815260206004820152602c60248201527f4552433732313a20617070726f76656420717565727920666f72206e6f6e657860448201526b34b9ba32b73a103a37b5b2b760a11b60648201526084015b60405180910390fd5b506000908152600460205260409020546001600160a01b031690565b600061041182610568565b9050806001600160a01b0316836001600160a01b0316141561047f5760405162461bcd60e51b815260206004820152602160248201527f4552433732313a20617070726f76616c20746f2063757272656e74206f776e656044820152603960f91b60648201526084016103e1565b336001600160a01b038216148061049b575061049b8133610247565b61050d5760405162461bcd60e51b815260206004820152603860248201527f4552433732313a20617070726f76652063616c6c6572206973206e6f74206f7760448201527f6e6572206e6f7220617070726f76656420666f7220616c6c000000000000000060648201526084016103e1565b610517838361083d565b505050565b61052633826108ab565b6105425760405162461bcd60e51b81526004016103e19061131e565b6105178383836109a2565b610517838383604051806020016040528060008152506106f8565b6000818152600260205260408120546001600160a01b0316806102d45760405162461bcd60e51b815260206004820152602960248201527f4552433732313a206f776e657220717565727920666f72206e6f6e657869737460448201526832b73a103a37b5b2b760b91b60648201526084016103e1565b6007546001600160a01b0316331461062f5760405162461bcd60e51b81526020600482015260136024820152721bdb9b1e4818591b5a5b8818d85b881b5a5b9d606a1b60448201526064016103e1565b61063b81600654610b3e565b6006805490600061064b83611419565b919050555050565b60006001600160a01b0382166106be5760405162461bcd60e51b815260206004820152602a60248201527f4552433732313a2062616c616e636520717565727920666f7220746865207a65604482015269726f206164647265737360b01b60648201526084016103e1565b506001600160a01b031660009081526003602052604090205490565b6060600180546102e9906113de565b6106f4338383610b58565b5050565b61070233836108ab565b61071e5760405162461bcd60e51b81526004016103e19061131e565b61072a84848484610c27565b50505050565b6000818152600260205260409020546060906001600160a01b03166107af5760405162461bcd60e51b815260206004820152602f60248201527f4552433732314d657461646174613a2055524920717565727920666f72206e6f60448201526e3732bc34b9ba32b73a103a37b5b2b760891b60648201526084016103e1565b60006107eb60408051808201909152601e81527f68747470733a2f2f6578616d706c652e636f6d2f6170692f746f6b656e2f0000602082015290565b9050600081511161080b5760405180602001604052806000815250610836565b8061081584610c5a565b60405160200161082692919061124d565b6040516020818303038152906040525b9392505050565b600081815260046020526040902080546001600160a01b0319166001600160a01b038416908117909155819061087282610568565b6001600160a01b03167f8c5be1e5ebec7d5bd14f71427d1e84f3dd0314c0f7b2291e5b200ac8c7c3b92560405160405180910390a45050565b6000818152600260205260408120546001600160a01b03166109245760405162461bcd60e51b815260206004820152602c60248201527f4552433732313a206f70657261746f7220717565727920666f72206e6f6e657860448201526b34b9ba32b73a103a37b5b2b760a11b60648201526084016103e1565b600061092f83610568565b9050806001600160a01b0316846001600160a01b0316148061096a5750836001600160a01b031661095f8461036c565b6001600160a01b0316145b8061099a57506001600160a01b0380821660009081526005602090815260408083209388168352929052205460ff165b949350505050565b826001600160a01b03166109b582610568565b6001600160a01b031614610a195760405162461bcd60e51b815260206004820152602560248201527f4552433732313a207472616e736665722066726f6d20696e636f72726563742060448201526437bbb732b960d91b60648201526084016103e1565b6001600160a01b038216610a7b5760405162461bcd60e51b8152602060048201526024808201527f4552433732313a207472616e7366657220746f20746865207a65726f206164646044820152637265737360e01b60648201526084016103e1565b610a8660008261083d565b6001600160a01b0383166000908152600360205260408120805460019290610aaf90849061139b565b90915550506001600160a01b0382166000908152600360205260408120805460019290610add90849061136f565b909155505060008181526002602052604080822080546001600160a01b0319166001600160a01b0386811691821790925591518493918716917fddf252ad1be2c89b69c2b068fc378daa952ba7f163c4a11628f55a4df523b3ef91a4505050565b6106f4828260405180602001604052806000815250610d74565b816001600160a01b0316836001600160a01b03161415610bba5760405162461bcd60e51b815260206004820152601960248201527f4552433732313a20617070726f766520746f2063616c6c65720000000000000060448201526064016103e1565b6001600160a01b03838116600081815260056020908152604080832094871680845294825291829020805460ff191686151590811790915591519182527f17307eab39ab6107e8899845ad3d59bd9653f200f220920489ca2b5937696c31910160405180910390a3505050565b610c328484846109a2565b610c3e84848484610da7565b61072a5760405162461bcd60e51b81526004016103e1906112cc565b606081610c7e5750506040805180820190915260018152600360fc1b602082015290565b8160005b8115610ca85780610c9281611419565b9150610ca19050600a83611387565b9150610c82565b60008167ffffffffffffffff811115610cd157634e487b7160e01b600052604160045260246000fd5b6040519080825280601f01601f191660200182016040528015610cfb576020820181803683370190505b5090505b841561099a57610d1060018361139b565b9150610d1d600a86611434565b610d2890603061136f565b60f81b818381518110610d4b57634e487b7160e01b600052603260045260246000fd5b60200101906001600160f81b031916908160001a905350610d6d600a86611387565b9450610cff565b610d7e8383610eb4565b610d8b6000848484610da7565b6105175760405162461bcd60e51b81526004016103e1906112cc565b60006001600160a01b0384163b15610ea957604051630a85bd0160e11b81526001600160a01b0385169063150b7a0290610deb90339089908890889060040161127c565b602060405180830381600087803b158015610e0557600080fd5b505af1925050508015610e35575060408051601f3d908101601f19168201909252610e32918101906111ed565b60015b610e8f573d808015610e63576040519150601f19603f3d011682016040523d82523d6000602084013e610e68565b606091505b508051610e875760405162461bcd60e51b81526004016103e1906112cc565b805181602001fd5b6001600160e01b031916630a85bd0160e11b14905061099a565b506001949350505050565b6001600160a01b038216610f0a5760405162461bcd60e51b815260206004820181905260248201527f4552433732313a206d696e7420746f20746865207a65726f206164647265737360448201526064016103e1565b6000818152600260205260409020546001600160a01b031615610f6f5760405162461bcd60e51b815260206004820152601c60248201527f4552433732313a20746f6b656e20616c7265616479206d696e7465640000000060448201526064016103e1565b6001600160a01b0382166000908152600360205260408120805460019290610f9890849061136f565b909155505060008181526002602052604080822080546001600160a01b0319166001600160a01b03861690811790915590518392907fddf252ad1be2c89b69c2b068fc378daa952ba7f163c4a11628f55a4df523b3ef908290a45050565b80356001600160a01b038116811461100d57600080fd5b919050565b600060208284031215611023578081fd5b61083682610ff6565b6000806040838503121561103e578081fd5b61104783610ff6565b915061105560208401610ff6565b90509250929050565b600080600060608486031215611072578081fd5b61107b84610ff6565b925061108960208501610ff6565b9150604084013590509250925092565b600080600080608085870312156110ae578081fd5b6110b785610ff6565b93506110c560208601610ff6565b925060408501359150606085013567ffffffffffffffff808211156110e8578283fd5b818701915087601f8301126110fb578283fd5b81358181111561110d5761110d611474565b604051601f8201601f19908116603f0116810190838211818310171561113557611135611474565b816040528281528a602084870101111561114d578586fd5b82602086016020830137918201602001949094529598949750929550505050565b60008060408385031215611180578182fd5b61118983610ff6565b91506020830135801515811461119d578182fd5b809150509250929050565b600080604083850312156111ba578182fd5b6111c383610ff6565b946020939093013593505050565b6000602082840312156111e2578081fd5b81356108368161148a565b6000602082840312156111fe578081fd5b81516108368161148a565b60006020828403121561121a578081fd5b5035919050565b600081518084526112398160208601602086016113b2565b601f01601f19169290920160200192915050565b6000835161125f8184602088016113b2565b8351908301906112738183602088016113b2565b01949350505050565b6001600160a01b03858116825284166020820152604081018390526080606082018190526000906112af90830184611221565b9695505050505050565b6020815260006108366020830184611221565b60208082526032908201527f4552433732313a207472616e7366657220746f206e6f6e20455243373231526560408201527131b2b4bb32b91034b6b83632b6b2b73a32b960711b606082015260800190565b60208082526031908201527f4552433732313a207472616e736665722063616c6c6572206973206e6f74206f6040820152701ddb995c881b9bdc88185c1c1c9bdd9959607a1b606082015260800190565b6000821982111561138257611382611448565b500190565b6000826113965761139661145e565b500490565b6000828210156113ad576113ad611448565b500390565b60005b838110156113cd5781810151838201526020016113b5565b8381111561072a5750506000910152565b600181811c908216806113f257607f821691505b6020821081141561141357634e487b7160e01b600052602260045260246000fd5b50919050565b600060001982141561142d5761142d611448565b5060010190565b6000826114435761144361145e565b500690565b634e487b7160e01b600052601160045260246000fd5b634e487b7160e01b600052601260045260246000fd5b634e487b7160e01b600052604160045260246000fd5b6001600160e01b0319811681146114a057600080fd5b5056fea26469706673582212204c3359bd7fe3a98e01a087c35fe3fc888972a72eb5cf7f8c66f22b725b9f334864736f6c63430008040033",
  "immutableReferences": {},
  "source": "// SPDX-License-Identifier: MIT\r\npragma solidity ^0.8.0;\r\n\r\nimport \"@openzeppelin/contracts/token/ERC721/ERC721.sol\";\r\n\r\ncontract BuildingToken is ERC721 {\r\n    uint256 public nextTokenId;\r\n    address public admin;\r\n\r\n    constructor() ERC721('BuildingToken', 'BT') {\r\n        admin = msg.sender;\r\n    }\r\n\r\n    function mint(address to) external {\r\n        require(msg.sender == admin, 'only admin can mint');\r\n        _safeMint(to, nextTokenId);\r\n        nextTokenId++;\r\n    }\r\n\r\n    function _baseURI() internal view virtual override returns (string memory) {\r\n        return \"https://example.com/api/token/\";\r\n    }\r\n}\r\n",
  "sourcePath": "C:\\blockchain\\recursos\\contract\\contracts\\BuildingToken.sol",
  "compiler": {
    "name": "solc",
    "version": "0.8.4+commit.c7e474f2.Emscripten.clang"
  },
  "schemaVersion": "3.4.16",
  "updatedAt": "2024-06-26T19:22:07.659Z",
  "networkType": "ethereum",
  "devdoc": {
    "kind": "dev",
    "methods": {
      "approve(address,uint256)": {
        "details": "See {IERC721-approve}."
      },
      "balanceOf(address)": {
        "details": "See {IERC721-balanceOf}."
      },
      "getApproved(uint256)": {
        "details": "See {IERC721-getApproved}."
      },
      "isApprovedForAll(address,address)": {
        "details": "See {IERC721-isApprovedForAll}."
      },
      "name()": {
        "details": "See {IERC721Metadata-name}."
      },
      "ownerOf(uint256)": {
        "details": "See {IERC721-ownerOf}."
      },
      "safeTransferFrom(address,address,uint256)": {
        "details": "See {IERC721-safeTransferFrom}."
      },
      "safeTransferFrom(address,address,uint256,bytes)": {
        "details": "See {IERC721-safeTransferFrom}."
      },
      "setApprovalForAll(address,bool)": {
        "details": "See {IERC721-setApprovalForAll}."
      },
      "supportsInterface(bytes4)": {
        "details": "See {IERC165-supportsInterface}."
      },
      "symbol()": {
        "details": "See {IERC721Metadata-symbol}."
      },
      "tokenURI(uint256)": {
        "details": "See {IERC721Metadata-tokenURI}."
      },
      "transferFrom(address,address,uint256)": {
        "details": "See {IERC721-transferFrom}."
      }
    },
    "version": 1
  },
  "userdoc": {
    "kind": "user",
    "methods": {},
    "version": 1
  }
}