{
  "contractName": "Marketplace",
  "abi": [
    {
      "inputs": [],
      "stateMutability": "nonpayable",
      "type": "constructor"
    },
    {
      "inputs": [],
      "name": "admin",
      "outputs": [
        {
          "internalType": "address",
          "name": "",
          "type": "address"
        }
      ],
      "stateMutability": "view",
      "type": "function",
      "constant": true
    },
    {
      "inputs": [
        {
          "internalType": "uint256",
          "name": "",
          "type": "uint256"
        }
      ],
      "name": "listings",
      "outputs": [
        {
          "internalType": "uint256",
          "name": "tokenId",
          "type": "uint256"
        },
        {
          "internalType": "address",
          "name": "tokenAddress",
          "type": "address"
        },
        {
          "internalType": "uint256",
          "name": "price",
          "type": "uint256"
        },
        {
          "internalType": "address",
          "name": "seller",
          "type": "address"
        }
      ],
      "stateMutability": "view",
      "type": "function",
      "constant": true
    },
    {
      "inputs": [
        {
          "internalType": "uint256",
          "name": "tokenId",
          "type": "uint256"
        },
        {
          "internalType": "address",
          "name": "tokenAddress",
          "type": "address"
        },
        {
          "internalType": "uint256",
          "name": "price",
          "type": "uint256"
        }
      ],
      "name": "listToken",
      "outputs": [],
      "stateMutability": "nonpayable",
      "type": "function"
    },
    {
      "inputs": [
        {
          "internalType": "uint256",
          "name": "index",
          "type": "uint256"
        }
      ],
      "name": "buyToken",
      "outputs": [],
      "stateMutability": "payable",
      "type": "function",
      "payable": true
    }
  ],
  "bytecode": "0x608060405234801561001057600080fd5b50600080546001600160a01b031916331790556105e9806100326000396000f3fe60806040526004361061003f5760003560e01c80632d296bf114610044578063d187918014610059578063de74e57b14610079578063f851a440146100c9575b600080fd5b610057610052366004610536565b610101565b005b34801561006557600080fd5b5061005761007436600461054e565b61038a565b34801561008557600080fd5b50610099610094366004610536565b6104f0565b604080519485526001600160a01b0393841660208601528401919091521660608201526080015b60405180910390f35b3480156100d557600080fd5b506000546100e9906001600160a01b031681565b6040516001600160a01b0390911681526020016100c0565b60006001828154811061012457634e487b7160e01b600052603260045260246000fd5b60009182526020918290206040805160808101825260049093029091018054835260018101546001600160a01b0390811694840194909452600281015491830182905260030154909216606082015291503410156101bf5760405162461bcd60e51b8152602060048201526014602482015273125b9cdd59999a58da595b9d081c185e5b595b9d60621b604482015260640160405180910390fd5b602081015181516040516323b872dd60e01b815230600482015233602482015260448101919091526001600160a01b03909116906323b872dd90606401600060405180830381600087803b15801561021657600080fd5b505af115801561022a573d6000803e3d6000fd5b5050505080606001516001600160a01b03166108fc82604001519081150290604051600060405180830381858888f1935050505015801561026f573d6000803e3d6000fd5b506001805461027f908290610590565b8154811061029d57634e487b7160e01b600052603260045260246000fd5b9060005260206000209060040201600183815481106102cc57634e487b7160e01b600052603260045260246000fd5b60009182526020909120825460049092020190815560018083015481830180546001600160a01b03199081166001600160a01b039384161790915560028086015490850155600394850154949093018054909316931692909217905580548061034557634e487b7160e01b600052603160045260246000fd5b6000828152602081206004600019909301928302018181556001810180546001600160a01b031990811690915560028201929092556003018054909116905590555050565b6040516323b872dd60e01b8152336004820152306024820152604481018490526001600160a01b038316906323b872dd90606401600060405180830381600087803b1580156103d857600080fd5b505af11580156103ec573d6000803e3d6000fd5b5050604080516080810182529586526001600160a01b0394851660208701908152908601938452336060870190815260018054808201825560009190915296517fb10e2d527612073b26eecdfd717e6a320cf44b4afac2b0732d9fcbe2b7fa0cf660049098029788015590517fb10e2d527612073b26eecdfd717e6a320cf44b4afac2b0732d9fcbe2b7fa0cf7870180546001600160a01b031990811692881692909217905593517fb10e2d527612073b26eecdfd717e6a320cf44b4afac2b0732d9fcbe2b7fa0cf8870155517fb10e2d527612073b26eecdfd717e6a320cf44b4afac2b0732d9fcbe2b7fa0cf99095018054909316949093169390931790555050565b6001818154811061050057600080fd5b600091825260209091206004909102018054600182015460028301546003909301549193506001600160a01b0390811692911684565b600060208284031215610547578081fd5b5035919050565b600080600060608486031215610562578182fd5b8335925060208401356001600160a01b038116811461057f578283fd5b929592945050506040919091013590565b6000828210156105ae57634e487b7160e01b81526011600452602481fd5b50039056fea2646970667358221220da9b91fb163a9fcb26c291858ccea1af8e0ea54346cde1ec228aff68fdae88ff64736f6c63430008040033",
  "immutableReferences": {},
  "source": "// SPDX-License-Identifier: MIT\r\npragma solidity ^0.8.0;\r\n\r\nimport \"@openzeppelin/contracts/token/ERC721/IERC721.sol\";\r\n\r\ncontract Marketplace {\r\n    address public admin;\r\n    struct Listing {\r\n        uint256 tokenId;\r\n        address tokenAddress;\r\n        uint256 price;\r\n        address seller;\r\n    }\r\n    \r\n    Listing[] public listings;\r\n\r\n    constructor() {\r\n        admin = msg.sender;\r\n    }\r\n\r\n    function listToken(uint256 tokenId, address tokenAddress, uint256 price) external {\r\n        IERC721(tokenAddress).transferFrom(msg.sender, address(this), tokenId);\r\n        listings.push(Listing(tokenId, tokenAddress, price, msg.sender));\r\n    }\r\n\r\n    function buyToken(uint256 index) external payable {\r\n        Listing memory listing = listings[index];\r\n        require(msg.value >= listing.price, \"Insufficient payment\");\r\n        \r\n        IERC721(listing.tokenAddress).transferFrom(address(this), msg.sender, listing.tokenId);\r\n        \r\n        payable(listing.seller).transfer(listing.price);\r\n        \r\n        listings[index] = listings[listings.length - 1];\r\n        listings.pop();\r\n    }\r\n}\r\n",
  "sourcePath": "C:\\blockchain\\recursos\\contract\\contracts\\Marketplace.sol",
  "compiler": {
    "name": "solc",
    "version": "0.8.4+commit.c7e474f2.Emscripten.clang"
  },
  "schemaVersion": "3.4.16",
  "updatedAt": "2024-06-26T19:22:08.482Z",
  "networkType": "ethereum",
  "devdoc": {
    "kind": "dev",
    "methods": {},
    "version": 1
  },
  "userdoc": {
    "kind": "user",
    "methods": {},
    "version": 1
  }
}