{
  "contractName": "PropertyMarketplace",
  "abi": [
    {
      "inputs": [
        {
          "internalType": "uint256",
          "name": "_platformCommissionPercentage",
          "type": "uint256"
        },
        {
          "internalType": "uint256",
          "name": "_promoterCommissionPercentage",
          "type": "uint256"
        }
      ],
      "stateMutability": "nonpayable",
      "type": "constructor"
    },
    {
      "anonymous": false,
      "inputs": [
        {
          "indexed": false,
          "internalType": "uint256",
          "name": "totalOwnedPropiedad",
          "type": "uint256"
        }
      ],
      "name": "PropertieCountUpdated",
      "type": "event"
    },
    {
      "anonymous": false,
      "inputs": [
        {
          "indexed": true,
          "internalType": "bytes32",
          "name": "propertyHash",
          "type": "bytes32"
        },
        {
          "indexed": false,
          "internalType": "uint256",
          "name": "id",
          "type": "uint256"
        },
        {
          "indexed": false,
          "internalType": "uint256",
          "name": "price",
          "type": "uint256"
        },
        {
          "indexed": false,
          "internalType": "bytes32",
          "name": "proof",
          "type": "bytes32"
        },
        {
          "indexed": false,
          "internalType": "address",
          "name": "owner",
          "type": "address"
        },
        {
          "indexed": false,
          "internalType": "enum PropertyMarketplace.State",
          "name": "state",
          "type": "uint8"
        }
      ],
      "name": "PropertieCreated",
      "type": "event"
    },
    {
      "anonymous": false,
      "inputs": [
        {
          "indexed": true,
          "internalType": "bytes32",
          "name": "propertyHash",
          "type": "bytes32"
        },
        {
          "indexed": false,
          "internalType": "uint256",
          "name": "id",
          "type": "uint256"
        },
        {
          "indexed": false,
          "internalType": "uint256",
          "name": "price",
          "type": "uint256"
        },
        {
          "indexed": false,
          "internalType": "address",
          "name": "owner",
          "type": "address"
        },
        {
          "indexed": false,
          "internalType": "enum PropertyMarketplace.State",
          "name": "state",
          "type": "uint8"
        }
      ],
      "name": "PropertiePurchased",
      "type": "event"
    },
    {
      "anonymous": false,
      "inputs": [
        {
          "indexed": true,
          "internalType": "bytes32",
          "name": "propertyHash",
          "type": "bytes32"
        },
        {
          "indexed": false,
          "internalType": "address",
          "name": "from",
          "type": "address"
        },
        {
          "indexed": false,
          "internalType": "address",
          "name": "to",
          "type": "address"
        }
      ],
      "name": "PropertieTransferred",
      "type": "event"
    },
    {
      "inputs": [],
      "name": "platformCommissionPercentage",
      "outputs": [
        {
          "internalType": "uint256",
          "name": "",
          "type": "uint256"
        }
      ],
      "stateMutability": "view",
      "type": "function",
      "constant": true
    },
    {
      "inputs": [],
      "name": "promoterCommissionPercentage",
      "outputs": [
        {
          "internalType": "uint256",
          "name": "",
          "type": "uint256"
        }
      ],
      "stateMutability": "view",
      "type": "function",
      "constant": true
    },
    {
      "inputs": [
        {
          "internalType": "uint256",
          "name": "price",
          "type": "uint256"
        },
        {
          "internalType": "bytes32",
          "name": "proof",
          "type": "bytes32"
        }
      ],
      "name": "createProperty",
      "outputs": [
        {
          "internalType": "bytes32",
          "name": "",
          "type": "bytes32"
        }
      ],
      "stateMutability": "nonpayable",
      "type": "function"
    },
    {
      "inputs": [
        {
          "internalType": "bytes16",
          "name": "propiertieId",
          "type": "bytes16"
        },
        {
          "internalType": "bytes32",
          "name": "proof",
          "type": "bytes32"
        },
        {
          "internalType": "address",
          "name": "promoter",
          "type": "address"
        }
      ],
      "name": "comprarPropiedad",
      "outputs": [
        {
          "internalType": "bytes32",
          "name": "",
          "type": "bytes32"
        }
      ],
      "stateMutability": "payable",
      "type": "function",
      "payable": true
    },
    {
      "inputs": [
        {
          "internalType": "bytes32",
          "name": "propertyHash",
          "type": "bytes32"
        },
        {
          "internalType": "address",
          "name": "to",
          "type": "address"
        }
      ],
      "name": "transferirPropiedad",
      "outputs": [],
      "stateMutability": "nonpayable",
      "type": "function"
    },
    {
      "inputs": [],
      "name": "getPropertieCount",
      "outputs": [
        {
          "internalType": "uint256",
          "name": "",
          "type": "uint256"
        }
      ],
      "stateMutability": "view",
      "type": "function",
      "constant": true
    },
    {
      "inputs": [
        {
          "internalType": "uint256",
          "name": "index",
          "type": "uint256"
        }
      ],
      "name": "getPropertieHashAtIndex",
      "outputs": [
        {
          "internalType": "bytes32",
          "name": "",
          "type": "bytes32"
        }
      ],
      "stateMutability": "view",
      "type": "function",
      "constant": true
    },
    {
      "inputs": [
        {
          "internalType": "bytes32",
          "name": "propertyHash",
          "type": "bytes32"
        }
      ],
      "name": "getPropertieByHash",
      "outputs": [
        {
          "components": [
            {
              "internalType": "uint256",
              "name": "id",
              "type": "uint256"
            },
            {
              "internalType": "uint256",
              "name": "price",
              "type": "uint256"
            },
            {
              "internalType": "bytes32",
              "name": "proof",
              "type": "bytes32"
            },
            {
              "internalType": "address",
              "name": "owner",
              "type": "address"
            },
            {
              "internalType": "enum PropertyMarketplace.State",
              "name": "state",
              "type": "uint8"
            }
          ],
          "internalType": "struct PropertyMarketplace.Propertie",
          "name": "",
          "type": "tuple"
        }
      ],
      "stateMutability": "view",
      "type": "function",
      "constant": true
    }
  ],
  "bytecode": "0x608060405234801561001057600080fd5b50604051610ab5380380610ab583398101604081905261002f9161004f565b600380546001600160a01b03191633179055600491909155600555610072565b60008060408385031215610061578182fd5b505080516020909101519092909150565b610a34806100816000396000f3fe60806040526004361061007b5760003560e01c806397abe8681161004e57806397abe86814610101578063b2e1782f1461012e578063c3f45bc714610141578063cf249fb01461016357600080fd5b80635a13cd43146100805780636339ea23146100a95780638450f012146100d657806392303e06146100eb575b600080fd5b34801561008c57600080fd5b5061009660055481565b6040519081526020015b60405180910390f35b3480156100b557600080fd5b506100966100c436600461083a565b60009081526001602052604090205490565b3480156100e257600080fd5b50600254610096565b3480156100f757600080fd5b5061009660045481565b34801561010d57600080fd5b5061012161011c36600461083a565b610183565b6040516100a091906108c0565b61009661013c3660046107f1565b610255565b34801561014d57600080fd5b5061016161015c366004610852565b6104d5565b005b34801561016f57600080fd5b5061009661017e36600461087d565b610621565b6101b26040805160a0810182526000808252602082018190529181018290526060810182905290608082015290565b60008281526020818152604091829020825160a081018452815481526001820154928101929092526002808201549383019390935260038101546001600160a01b0381166060840152919290916080840191600160a01b90910460ff169081111561022d57634e487b7160e01b600052602160045260246000fd5b600281111561024c57634e487b7160e01b600052602160045260246000fd5b90525092915050565b6000806064600454346102689190610997565b6102729190610977565b905060006064600554836102869190610997565b6102909190610977565b9050600061029e82846109b6565b905060006102ac84346109b6565b90506001600160a01b038616156102f5576040516001600160a01b0387169084156108fc029085906000818181858888f193505050501580156102f3573d6000803e3d6000fd5b505b6003546040516001600160a01b039091169083156108fc029084906000818181858888f1935050505015801561032f573d6000803e3d6000fd5b50604080516001600160801b03198a166020808301919091523360601b6bffffffffffffffffffffffff1916603083015282516024818403018152604490920190925280519101206002805460009182610388836109cd565b909155506040805160a08101825282815260208082018781528284018e815233606085019081526000608086018181528a8252948190529590952084518155915160018301555160028083019190915593516003820180546001600160a01b031981166001600160a01b0390931692831782559351969750939591949193926001600160a81b0319161790600160a01b90849081111561043857634e487b7160e01b600052602160045260246000fd5b021790555050506000818152600160205260408082208490555183917f579e7d8fb26b4e52c79906ce3e66b0c7d9c3e19e9e059fbe78e52e77a86ed9b29161048591859188913391610909565b60405180910390a27f562527f0d896721dc453544146379b919816573c35ca10b4a7c3709aa75716226002546040516104c091815260200190565b60405180910390a15098975050505050505050565b6001600160a01b0381166105425760405162461bcd60e51b815260206004820152602960248201527f4c6120646972656363696f6e2064652064657374696e6f206e6f20707565646560448201526820736572206365726f60b81b60648201526084015b60405180910390fd5b600082815260208190526040902060038101546001600160a01b031633146105c05760405162461bcd60e51b815260206004820152602b60248201527f536f6c6f20656c206f776e6572207075656465207472616e736665726972206c60448201526a18481c1c9bdc1a5959185960aa1b6064820152608401610539565b6003810180546001600160a01b0319166001600160a01b03841690811790915560408051338152602081019290925284917f8f1b905b0118aa814c5a5403555e2e01a51d45df3b72c71702d34d7cc8698c16910160405180910390a2505050565b600080823360405160200161065292919091825260601b6bffffffffffffffffffffffff1916602082015260340190565b60405160208183030381529060405280519060200120905060006002600081548092919061067f906109cd565b909155506040805160a08101825282815260208101889052908101869052336060820152909150608081016001905260008381526020818152604091829020835181559083015160018201559082015160028083019190915560608301516003830180546001600160a01b039092166001600160a01b031983168117825560808601519391926001600160a81b0319161790600160a01b90849081111561073657634e487b7160e01b600052602160045260246000fd5b02179055505050600081815260016020819052604091829020849055905183917fbfb7d924b343a6798445526c970cdacd9ae8926fbf13a9530848c90ac20acd519161078a9185918a918a9133919061093c565b60405180910390a27f562527f0d896721dc453544146379b919816573c35ca10b4a7c3709aa75716226002546040516107c591815260200190565b60405180910390a1509392505050565b80356001600160a01b03811681146107ec57600080fd5b919050565b600080600060608486031215610805578283fd5b83356001600160801b03198116811461081c578384fd5b925060208401359150610831604085016107d5565b90509250925092565b60006020828403121561084b578081fd5b5035919050565b60008060408385031215610864578182fd5b82359150610874602084016107d5565b90509250929050565b6000806040838503121561088f578182fd5b50508035926020909101359150565b600381106108bc57634e487b7160e01b600052602160045260246000fd5b9052565b8151815260208083015190820152604080830151908201526060808301516001600160a01b03169082015260808083015160a08301916109029084018261089e565b5092915050565b848152602081018490526001600160a01b038316604082015260808101610933606083018461089e565b95945050505050565b85815260208101859052604081018490526001600160a01b038316606082015260a0810161096d608083018461089e565b9695505050505050565b60008261099257634e487b7160e01b81526012600452602481fd5b500490565b60008160001904831182151516156109b1576109b16109e8565b500290565b6000828210156109c8576109c86109e8565b500390565b60006000198214156109e1576109e16109e8565b5060010190565b634e487b7160e01b600052601160045260246000fdfea2646970667358221220210fdf8bef99f6a37673c875051f8af156268e2ad09803a4df31d0a91823393a64736f6c63430008040033",
  "immutableReferences": {},
  "source": "// SPDX-License-Identifier: MIT\npragma solidity ^0.8.4;\n\ncontract PropertyMarketplace {\n\n  enum State {\n    Purchased,\n    Activated,\n    Deactivated\n  }\n\n  struct Propertie {\n    uint id; // 32\n    uint price; // 32\n    bytes32 proof; // 32\n    address owner; // 20\n    State state; // 1\n  }\n\n  mapping(bytes32 => Propertie) private ownedPropiedad;\n  mapping(uint => bytes32) private ownedPropiedadHash;\n\n  uint private totalOwnedPropiedad;\n  address private platformOwner;\n  uint public platformCommissionPercentage;\n  uint public promoterCommissionPercentage;\n\n  // Eventos para depuracin\n  event PropertiePurchased(bytes32 indexed propertyHash, uint id, uint price, address owner, State state);\n  event PropertieCreated(bytes32 indexed propertyHash, uint id, uint price, bytes32 proof, address owner, State state);\n  event PropertieCountUpdated(uint totalOwnedPropiedad);\n  event PropertieTransferred(bytes32 indexed propertyHash, address from, address to);\n\n  constructor(uint _platformCommissionPercentage, uint _promoterCommissionPercentage) {\n    platformOwner = msg.sender;\n    platformCommissionPercentage = _platformCommissionPercentage;\n    promoterCommissionPercentage = _promoterCommissionPercentage;\n  }\n\n  function createProperty(\n    uint price,\n    bytes32 proof\n  )\n    external\n    returns(bytes32)\n  {\n    bytes32 propertyHash = keccak256(abi.encodePacked(proof, msg.sender));\n\n    uint id = totalOwnedPropiedad++;\n    ownedPropiedad[propertyHash] = Propertie({\n      id: id,\n      price: price,\n      proof: proof,\n      owner: msg.sender,\n      state: State.Activated\n    });\n\n    ownedPropiedadHash[id] = propertyHash;\n\n    emit PropertieCreated(propertyHash, id, price, proof, msg.sender, State.Activated);\n    emit PropertieCountUpdated(totalOwnedPropiedad);\n\n    return propertyHash;\n  }\n\n  function comprarPropiedad(\n    bytes16 propiertieId,\n    bytes32 proof,\n    address promoter\n  )\n    external\n    payable\n    returns(bytes32)\n  {\n    uint totalCommission = (msg.value * platformCommissionPercentage) / 100;\n    uint promoterCommission = (totalCommission * promoterCommissionPercentage) / 100;\n    uint platformCommission = totalCommission - promoterCommission;\n    uint priceAfterCommission = msg.value - totalCommission;\n    \n    if (promoter != address(0)) {\n        payable(promoter).transfer(promoterCommission);\n    }\n    payable(platformOwner).transfer(platformCommission);\n\n    bytes32 propertyHash = keccak256(abi.encodePacked(propiertieId, msg.sender));\n\n    uint id = totalOwnedPropiedad++;\n    ownedPropiedad[propertyHash] = Propertie({\n      id: id,\n      price: priceAfterCommission,\n      proof: proof,\n      owner: msg.sender,\n      state: State.Purchased\n    });\n\n    ownedPropiedadHash[id] = propertyHash;\n\n    emit PropertiePurchased(propertyHash, id, priceAfterCommission, msg.sender, State.Purchased);\n    emit PropertieCountUpdated(totalOwnedPropiedad);\n\n    return propertyHash;\n  }\n\n  function transferirPropiedad(bytes32 propertyHash, address to) external {\n    require(to != address(0), \"La direccion de destino no puede ser cero\");\n\n    Propertie storage propiedad = ownedPropiedad[propertyHash];\n    require(propiedad.owner == msg.sender, \"Solo el owner puede transferir la propiedad\");\n\n    propiedad.owner = to;\n\n    emit PropertieTransferred(propertyHash, msg.sender, to);\n  }\n\n  function getPropertieCount() external view returns (uint) {\n    return totalOwnedPropiedad;\n  }\n\n  function getPropertieHashAtIndex(uint index) external view returns (bytes32) {\n    return ownedPropiedadHash[index];\n  }\n\n  function getPropertieByHash(bytes32 propertyHash) external view returns (Propertie memory) {\n    return ownedPropiedad[propertyHash];\n  }\n}\n",
  "sourcePath": "C:\\blockchain\\recursos\\contract\\contracts\\PropertyMarketplace.sol",
  "compiler": {
    "name": "solc",
    "version": "0.8.4+commit.c7e474f2.Emscripten.clang"
  },
  "schemaVersion": "3.4.16",
  "updatedAt": "2024-06-25T17:33:21.141Z",
  "networkType": "ethereum",
  "devdoc": {
    "kind": "dev",
    "methods": {},
    "version": 1
  },
  "userdoc": {
    "kind": "user",
    "methods": {},
    "version": 1
  }
}