{
  "contractName": "PropertyMarketplace",
  "abi": [
    {
      "inputs": [
        {
          "internalType": "address",
          "name": "_commissionManager",
          "type": "address"
        }
      ],
      "stateMutability": "nonpayable",
      "type": "constructor"
    },
    {
      "anonymous": false,
      "inputs": [
        {
          "indexed": false,
          "internalType": "uint256",
          "name": "totalOwnedPropiedad",
          "type": "uint256"
        }
      ],
      "name": "PropertieCountUpdated",
      "type": "event"
    },
    {
      "anonymous": false,
      "inputs": [
        {
          "indexed": true,
          "internalType": "bytes32",
          "name": "propertyHash",
          "type": "bytes32"
        },
        {
          "indexed": false,
          "internalType": "uint256",
          "name": "id",
          "type": "uint256"
        },
        {
          "indexed": false,
          "internalType": "uint256",
          "name": "price",
          "type": "uint256"
        },
        {
          "indexed": false,
          "internalType": "bytes32",
          "name": "proof",
          "type": "bytes32"
        },
        {
          "indexed": false,
          "internalType": "address",
          "name": "owner",
          "type": "address"
        },
        {
          "indexed": false,
          "internalType": "enum PropertyMarketplace.State",
          "name": "state",
          "type": "uint8"
        }
      ],
      "name": "PropertieCreated",
      "type": "event"
    },
    {
      "anonymous": false,
      "inputs": [
        {
          "indexed": true,
          "internalType": "bytes32",
          "name": "propertyHash",
          "type": "bytes32"
        },
        {
          "indexed": false,
          "internalType": "uint256",
          "name": "id",
          "type": "uint256"
        },
        {
          "indexed": false,
          "internalType": "uint256",
          "name": "price",
          "type": "uint256"
        },
        {
          "indexed": false,
          "internalType": "address",
          "name": "owner",
          "type": "address"
        },
        {
          "indexed": false,
          "internalType": "enum PropertyMarketplace.State",
          "name": "state",
          "type": "uint8"
        }
      ],
      "name": "PropertiePurchased",
      "type": "event"
    },
    {
      "anonymous": false,
      "inputs": [
        {
          "indexed": true,
          "internalType": "bytes32",
          "name": "propertyHash",
          "type": "bytes32"
        },
        {
          "indexed": false,
          "internalType": "address",
          "name": "from",
          "type": "address"
        },
        {
          "indexed": false,
          "internalType": "address",
          "name": "to",
          "type": "address"
        }
      ],
      "name": "PropertieTransferred",
      "type": "event"
    },
    {
      "inputs": [
        {
          "internalType": "uint256",
          "name": "price",
          "type": "uint256"
        },
        {
          "internalType": "bytes32",
          "name": "proof",
          "type": "bytes32"
        }
      ],
      "name": "createProperty",
      "outputs": [
        {
          "internalType": "bytes32",
          "name": "",
          "type": "bytes32"
        }
      ],
      "stateMutability": "nonpayable",
      "type": "function"
    },
    {
      "inputs": [
        {
          "internalType": "bytes32",
          "name": "propertyHash",
          "type": "bytes32"
        },
        {
          "internalType": "address",
          "name": "promoter",
          "type": "address"
        }
      ],
      "name": "comprarPropiedad",
      "outputs": [],
      "stateMutability": "payable",
      "type": "function",
      "payable": true
    },
    {
      "inputs": [
        {
          "internalType": "bytes32",
          "name": "propertyHash",
          "type": "bytes32"
        },
        {
          "internalType": "address",
          "name": "to",
          "type": "address"
        }
      ],
      "name": "transferirPropiedad",
      "outputs": [],
      "stateMutability": "nonpayable",
      "type": "function"
    },
    {
      "inputs": [],
      "name": "getPropertieCount",
      "outputs": [
        {
          "internalType": "uint256",
          "name": "",
          "type": "uint256"
        }
      ],
      "stateMutability": "view",
      "type": "function",
      "constant": true
    },
    {
      "inputs": [
        {
          "internalType": "uint256",
          "name": "index",
          "type": "uint256"
        }
      ],
      "name": "getPropertieHashAtIndex",
      "outputs": [
        {
          "internalType": "bytes32",
          "name": "",
          "type": "bytes32"
        }
      ],
      "stateMutability": "view",
      "type": "function",
      "constant": true
    },
    {
      "inputs": [
        {
          "internalType": "bytes32",
          "name": "propertyHash",
          "type": "bytes32"
        }
      ],
      "name": "getPropertieByHash",
      "outputs": [
        {
          "components": [
            {
              "internalType": "uint256",
              "name": "id",
              "type": "uint256"
            },
            {
              "internalType": "uint256",
              "name": "price",
              "type": "uint256"
            },
            {
              "internalType": "bytes32",
              "name": "proof",
              "type": "bytes32"
            },
            {
              "internalType": "address",
              "name": "owner",
              "type": "address"
            },
            {
              "internalType": "enum PropertyMarketplace.State",
              "name": "state",
              "type": "uint8"
            }
          ],
          "internalType": "struct PropertyMarketplace.Propertie",
          "name": "",
          "type": "tuple"
        }
      ],
      "stateMutability": "view",
      "type": "function",
      "constant": true
    }
  ],
  "bytecode": "0x608060405234801561001057600080fd5b50604051610c6a380380610c6a83398101604081905261002f91610062565b60038054336001600160a01b031991821617909155600480549091166001600160a01b0392909216919091179055610090565b600060208284031215610073578081fd5b81516001600160a01b0381168114610089578182fd5b9392505050565b610bcb8061009f6000396000f3fe6080604052600436106100555760003560e01c80634dce85f71461005a5780636339ea231461006f5780638450f012146100af57806397abe868146100c4578063c3f45bc7146100f1578063cf249fb014610111575b600080fd5b61006d6100683660046109b5565b610131565b005b34801561007b57600080fd5b5061009c61008a36600461099d565b60009081526001602052604090205490565b6040519081526020015b60405180910390f35b3480156100bb57600080fd5b5060025461009c565b3480156100d057600080fd5b506100e46100df36600461099d565b6105ad565b6040516100a69190610a3f565b3480156100fd57600080fd5b5061006d61010c3660046109b5565b61067f565b34801561011d57600080fd5b5061009c61012c3660046109fc565b6107c6565b600082815260208190526040902060016003820154600160a01b900460ff16600281111561016f57634e487b7160e01b600052602160045260246000fd5b146101c15760405162461bcd60e51b815260206004820152601860248201527f50726f7065727479206973206e6f7420666f722073616c65000000000000000060448201526064015b60405180910390fd5b806001015434146102065760405162461bcd60e51b815260206004820152600f60248201526e496e636f72726563742076616c756560881b60448201526064016101b8565b6000600460009054906101000a90046001600160a01b03166001600160a01b031663ef767a696040518163ffffffff1660e01b815260040160206040518083038186803b15801561025657600080fd5b505afa15801561026a573d6000803e3d6000fd5b505050506040513d601f19601f8201168201806040525081019061028e91906109e4565b90506000600460009054906101000a90046001600160a01b03166001600160a01b031663f974c2c86040518163ffffffff1660e01b815260040160206040518083038186803b1580156102e057600080fd5b505afa1580156102f4573d6000803e3d6000fd5b505050506040513d601f19601f8201168201806040525081019061031891906109e4565b90506000600460009054906101000a90046001600160a01b03166001600160a01b031663dbe55e566040518163ffffffff1660e01b815260040160206040518083038186803b15801561036a57600080fd5b505afa15801561037e573d6000803e3d6000fd5b505050506040513d601f19601f820116820180604052508101906103a2919061097a565b90506000600460009054906101000a90046001600160a01b03166001600160a01b0316632d3650e36040518163ffffffff1660e01b815260040160206040518083038186803b1580156103f457600080fd5b505afa158015610408573d6000803e3d6000fd5b505050506040513d601f19601f8201168201806040525081019061042c919061097a565b90506000606461043c8634610b16565b6104469190610af6565b9050600060646104568684610b16565b6104609190610af6565b9050600061046e8284610b35565b9050600061047c8434610b35565b90506001600160a01b038a16156104c5576040516001600160a01b0386169084156108fc029085906000818181858888f193505050501580156104c3573d6000803e3d6000fd5b505b6040516001600160a01b0387169083156108fc029084906000818181858888f193505050501580156104fb573d6000803e3d6000fd5b5060038901546040516001600160a01b039091169082156108fc029083906000818181858888f19350505050158015610538573d6000803e3d6000fd5b506003890180546001600160a81b0319163360ff60a01b19811691909117909155895460018b01546040518e937f579e7d8fb26b4e52c79906ce3e66b0c7d9c3e19e9e059fbe78e52e77a86ed9b293610598939092909190600090610a88565b60405180910390a25050505050505050505050565b6105dc6040805160a0810182526000808252602082018190529181018290526060810182905290608082015290565b60008281526020818152604091829020825160a081018452815481526001820154928101929092526002808201549383019390935260038101546001600160a01b0381166060840152919290916080840191600160a01b90910460ff169081111561065757634e487b7160e01b600052602160045260246000fd5b600281111561067657634e487b7160e01b600052602160045260246000fd5b90525092915050565b6001600160a01b0381166106e75760405162461bcd60e51b815260206004820152602960248201527f4c6120646972656363696f6e2064652064657374696e6f206e6f20707565646560448201526820736572206365726f60b81b60648201526084016101b8565b600082815260208190526040902060038101546001600160a01b031633146107655760405162461bcd60e51b815260206004820152602b60248201527f536f6c6f20656c206f776e6572207075656465207472616e736665726972206c60448201526a18481c1c9bdc1a5959185960aa1b60648201526084016101b8565b6003810180546001600160a01b0319166001600160a01b03841690811790915560408051338152602081019290925284917f8f1b905b0118aa814c5a5403555e2e01a51d45df3b72c71702d34d7cc8698c16910160405180910390a2505050565b60008082336040516020016107f792919091825260601b6bffffffffffffffffffffffff1916602082015260340190565b60405160208183030381529060405280519060200120905060006002600081548092919061082490610b4c565b909155506040805160a08101825282815260208101889052908101869052336060820152909150608081016001905260008381526020818152604091829020835181559083015160018201559082015160028083019190915560608301516003830180546001600160a01b039092166001600160a01b031983168117825560808601519391926001600160a81b0319161790600160a01b9084908111156108db57634e487b7160e01b600052602160045260246000fd5b02179055505050600081815260016020819052604091829020849055905183917fbfb7d924b343a6798445526c970cdacd9ae8926fbf13a9530848c90ac20acd519161092f9185918a918a91339190610abb565b60405180910390a27f562527f0d896721dc453544146379b919816573c35ca10b4a7c3709aa757162260025460405161096a91815260200190565b60405180910390a1509392505050565b60006020828403121561098b578081fd5b815161099681610b7d565b9392505050565b6000602082840312156109ae578081fd5b5035919050565b600080604083850312156109c7578081fd5b8235915060208301356109d981610b7d565b809150509250929050565b6000602082840312156109f5578081fd5b5051919050565b60008060408385031215610a0e578182fd5b50508035926020909101359150565b60038110610a3b57634e487b7160e01b600052602160045260246000fd5b9052565b8151815260208083015190820152604080830151908201526060808301516001600160a01b03169082015260808083015160a0830191610a8190840182610a1d565b5092915050565b848152602081018490526001600160a01b038316604082015260808101610ab26060830184610a1d565b95945050505050565b85815260208101859052604081018490526001600160a01b038316606082015260a08101610aec6080830184610a1d565b9695505050505050565b600082610b1157634e487b7160e01b81526012600452602481fd5b500490565b6000816000190483118215151615610b3057610b30610b67565b500290565b600082821015610b4757610b47610b67565b500390565b6000600019821415610b6057610b60610b67565b5060010190565b634e487b7160e01b600052601160045260246000fd5b6001600160a01b0381168114610b9257600080fd5b5056fea26469706673582212207345b1cdc5127f3963e868d90b0667806eb336f9656913ffd83f51bd665e0bd164736f6c63430008040033",
  "immutableReferences": {},
  "source": "// SPDX-License-Identifier: MIT\npragma solidity ^0.8.4;\n\nimport \"./CommissionManager.sol\";\n\ncontract PropertyMarketplace {\n\n  enum State {\n    Purchased,\n    Activated,\n    Deactivated\n  }\n\n  struct Propertie {\n    uint id;\n    uint price;\n    bytes32 proof;\n    address owner;\n    State state;\n  }\n\n  mapping(bytes32 => Propertie) private ownedPropiedad;\n  mapping(uint => bytes32) private ownedPropiedadHash;\n\n  uint private totalOwnedPropiedad;\n  address private platformOwner;\n  CommissionManager private commissionManager;\n\n  // Eventos para depuracin\n  event PropertiePurchased(bytes32 indexed propertyHash, uint id, uint price, address owner, State state);\n  event PropertieCreated(bytes32 indexed propertyHash, uint id, uint price, bytes32 proof, address owner, State state);\n  event PropertieCountUpdated(uint totalOwnedPropiedad);\n  event PropertieTransferred(bytes32 indexed propertyHash, address from, address to);\n\n  constructor(address _commissionManager) {\n    platformOwner = msg.sender;\n    commissionManager = CommissionManager(_commissionManager);\n  }\n\n  function createProperty(uint price, bytes32 proof) external returns(bytes32) {\n    bytes32 propertyHash = keccak256(abi.encodePacked(proof, msg.sender));\n\n    uint id = totalOwnedPropiedad++;\n    ownedPropiedad[propertyHash] = Propertie({\n      id: id,\n      price: price,\n      proof: proof,\n      owner: msg.sender,\n      state: State.Activated\n    });\n\n    ownedPropiedadHash[id] = propertyHash;\n\n    emit PropertieCreated(propertyHash, id, price, proof, msg.sender, State.Activated);\n    emit PropertieCountUpdated(totalOwnedPropiedad);\n\n    return propertyHash;\n  }\n\n  function comprarPropiedad(bytes32 propertyHash, address promoter) external payable {\n    Propertie storage propiedad = ownedPropiedad[propertyHash];\n    require(propiedad.state == State.Activated, \"Property is not for sale\");\n    require(msg.value == propiedad.price, \"Incorrect value\");\n\n    uint platformCommissionPercentage = commissionManager.getPlatformCommission();\n    uint promoterCommissionPercentage = commissionManager.getPromoterCommission();\n    address platformAddress = commissionManager.platformAddress();\n    address promoterAddress = commissionManager.promoterAddress();\n\n    uint totalCommission = (msg.value * platformCommissionPercentage) / 100;\n    uint promoterCommission = (totalCommission * promoterCommissionPercentage) / 100;\n    uint platformCommission = totalCommission - promoterCommission;\n    uint priceAfterCommission = msg.value - totalCommission;\n\n    if (promoter != address(0)) {\n        payable(promoterAddress).transfer(promoterCommission);\n    }\n    payable(platformAddress).transfer(platformCommission);\n    payable(propiedad.owner).transfer(priceAfterCommission);\n\n    propiedad.owner = msg.sender;\n    propiedad.state = State.Purchased;\n\n    emit PropertiePurchased(propertyHash, propiedad.id, propiedad.price, msg.sender, State.Purchased);\n  }\n\n  function transferirPropiedad(bytes32 propertyHash, address to) external {\n    require(to != address(0), \"La direccion de destino no puede ser cero\");\n\n    Propertie storage propiedad = ownedPropiedad[propertyHash];\n    require(propiedad.owner == msg.sender, \"Solo el owner puede transferir la propiedad\");\n\n    propiedad.owner = to;\n\n    emit PropertieTransferred(propertyHash, msg.sender, to);\n  }\n\n  function getPropertieCount() external view returns (uint) {\n    return totalOwnedPropiedad;\n  }\n\n  function getPropertieHashAtIndex(uint index) external view returns (bytes32) {\n    return ownedPropiedadHash[index];\n  }\n\n  function getPropertieByHash(bytes32 propertyHash) external view returns (Propertie memory) {\n    return ownedPropiedad[propertyHash];\n  }\n}\n",
  "sourcePath": "C:\\blockchain\\recursos\\contract\\contracts\\PropertyMarketplace.sol",
  "compiler": {
    "name": "solc",
    "version": "0.8.4+commit.c7e474f2.Emscripten.clang"
  },
  "schemaVersion": "3.4.16",
  "updatedAt": "2024-06-26T19:22:09.341Z",
  "networkType": "ethereum",
  "devdoc": {
    "kind": "dev",
    "methods": {},
    "version": 1
  },
  "userdoc": {
    "kind": "user",
    "methods": {},
    "version": 1
  }
}