{
  "contractName": "TransactionHandler",
  "abi": [
    {
      "inputs": [
        {
          "internalType": "address",
          "name": "_commissionManager",
          "type": "address"
        }
      ],
      "stateMutability": "nonpayable",
      "type": "constructor"
    },
    {
      "inputs": [],
      "name": "commissionManager",
      "outputs": [
        {
          "internalType": "address",
          "name": "",
          "type": "address"
        }
      ],
      "stateMutability": "view",
      "type": "function",
      "constant": true
    },
    {
      "inputs": [
        {
          "internalType": "uint256",
          "name": "amount",
          "type": "uint256"
        }
      ],
      "name": "handleTransaction",
      "outputs": [],
      "stateMutability": "view",
      "type": "function",
      "constant": true
    }
  ],
  "bytecode": "0x608060405234801561001057600080fd5b506040516102f73803806102f783398101604081905261002f91610054565b600080546001600160a01b0319166001600160a01b0392909216919091179055610082565b600060208284031215610065578081fd5b81516001600160a01b038116811461007b578182fd5b9392505050565b610266806100916000396000f3fe608060405234801561001057600080fd5b50600436106100365760003560e01c80630ef51d0d1461003b578063cdb28c171461006a575b600080fd5b60005461004e906001600160a01b031681565b6040516001600160a01b03909116815260200160405180910390f35b61007d6100783660046101b5565b61007f565b005b6000805460408051630d29d23760e31b815290516064926001600160a01b03169163694e91b8916004808301926020929190829003018186803b1580156100c557600080fd5b505afa1580156100d9573d6000803e3d6000fd5b505050506040513d601f19601f820116820180604052508101906100fd91906101cd565b6101079084610205565b61011191906101e5565b90506000606460008054906101000a90046001600160a01b03166001600160a01b03166323249f5f6040518163ffffffff1660e01b815260040160206040518083038186803b15801561016357600080fd5b505afa158015610177573d6000803e3d6000fd5b505050506040513d601f19601f8201168201806040525081019061019b91906101cd565b6101a59085610205565b6101af91906101e5565b50505050565b6000602082840312156101c6578081fd5b5035919050565b6000602082840312156101de578081fd5b5051919050565b60008261020057634e487b7160e01b81526012600452602481fd5b500490565b600081600019048311821515161561022b57634e487b7160e01b81526011600452602481fd5b50029056fea26469706673582212207af13a2f5a02819b2c4efa8e7552e4efcd156d64af064c75df3683e1e218520a64736f6c63430008040033",
  "immutableReferences": {},
  "source": "// SPDX-License-Identifier: MIT\r\npragma solidity ^0.8.0;\r\n\r\nimport \"./CommissionManager.sol\";\r\n\r\ncontract TransactionHandler {\r\n    address public commissionManager;\r\n\r\n    constructor(address _commissionManager) {\r\n        commissionManager = _commissionManager;\r\n    }\r\n\r\n    function handleTransaction(uint256 amount) external view {\r\n        uint256 platformFee = (amount * CommissionManager(commissionManager).platformCommission()) / 100;\r\n        uint256 promoterFee = (amount * CommissionManager(commissionManager).promoterCommission()) / 100;\r\n\r\n        // Lgica adicional para manejar la transaccin (aqu puedes usar las variables)\r\n    }\r\n}\r\n",
  "sourcePath": "C:\\blockchain\\recursos\\contract\\contracts\\TransactionHandler.sol",
  "compiler": {
    "name": "solc",
    "version": "0.8.4+commit.c7e474f2.Emscripten.clang"
  },
  "schemaVersion": "3.4.16",
  "updatedAt": "2024-06-26T19:22:09.355Z",
  "networkType": "ethereum",
  "devdoc": {
    "kind": "dev",
    "methods": {},
    "version": 1
  },
  "userdoc": {
    "kind": "user",
    "methods": {},
    "version": 1
  }
}