{
  "contractName": "CommissionManager",
  "abi": [
    {
      "inputs": [
        {
          "internalType": "uint256",
          "name": "_platformCommission",
          "type": "uint256"
        },
        {
          "internalType": "uint256",
          "name": "_promoterCommission",
          "type": "uint256"
        },
        {
          "internalType": "address",
          "name": "_platformAddress",
          "type": "address"
        },
        {
          "internalType": "address",
          "name": "_promoterAddress",
          "type": "address"
        }
      ],
      "stateMutability": "nonpayable",
      "type": "constructor"
    },
    {
      "inputs": [],
      "name": "admin",
      "outputs": [
        {
          "internalType": "address",
          "name": "",
          "type": "address"
        }
      ],
      "stateMutability": "view",
      "type": "function",
      "constant": true
    },
    {
      "inputs": [],
      "name": "platformAddress",
      "outputs": [
        {
          "internalType": "address",
          "name": "",
          "type": "address"
        }
      ],
      "stateMutability": "view",
      "type": "function",
      "constant": true
    },
    {
      "inputs": [],
      "name": "platformCommission",
      "outputs": [
        {
          "internalType": "uint256",
          "name": "",
          "type": "uint256"
        }
      ],
      "stateMutability": "view",
      "type": "function",
      "constant": true
    },
    {
      "inputs": [],
      "name": "promoterAddress",
      "outputs": [
        {
          "internalType": "address",
          "name": "",
          "type": "address"
        }
      ],
      "stateMutability": "view",
      "type": "function",
      "constant": true
    },
    {
      "inputs": [],
      "name": "promoterCommission",
      "outputs": [
        {
          "internalType": "uint256",
          "name": "",
          "type": "uint256"
        }
      ],
      "stateMutability": "view",
      "type": "function",
      "constant": true
    },
    {
      "inputs": [
        {
          "internalType": "uint256",
          "name": "newCommission",
          "type": "uint256"
        }
      ],
      "name": "setPlatformCommission",
      "outputs": [],
      "stateMutability": "nonpayable",
      "type": "function"
    },
    {
      "inputs": [
        {
          "internalType": "uint256",
          "name": "newCommission",
          "type": "uint256"
        }
      ],
      "name": "setPromoterCommission",
      "outputs": [],
      "stateMutability": "nonpayable",
      "type": "function"
    },
    {
      "inputs": [
        {
          "internalType": "address",
          "name": "newAddress",
          "type": "address"
        }
      ],
      "name": "setPlatformAddress",
      "outputs": [],
      "stateMutability": "nonpayable",
      "type": "function"
    },
    {
      "inputs": [
        {
          "internalType": "address",
          "name": "newAddress",
          "type": "address"
        }
      ],
      "name": "setPromoterAddress",
      "outputs": [],
      "stateMutability": "nonpayable",
      "type": "function"
    },
    {
      "inputs": [],
      "name": "getPlatformCommission",
      "outputs": [
        {
          "internalType": "uint256",
          "name": "",
          "type": "uint256"
        }
      ],
      "stateMutability": "view",
      "type": "function",
      "constant": true
    },
    {
      "inputs": [],
      "name": "getPromoterCommission",
      "outputs": [
        {
          "internalType": "uint256",
          "name": "",
          "type": "uint256"
        }
      ],
      "stateMutability": "view",
      "type": "function",
      "constant": true
    }
  ],
  "bytecode": "0x608060405234801561001057600080fd5b5060405161061338038061061383398101604081905261002f91610142565b6001600160a01b03821661008a5760405162461bcd60e51b815260206004820152601860248201527f496e76616c696420706c6174666f726d2061646472657373000000000000000060448201526064015b60405180910390fd5b6001600160a01b0381166100e05760405162461bcd60e51b815260206004820152601860248201527f496e76616c69642070726f6d6f746572206164647265737300000000000000006044820152606401610081565b60008054336001600160a01b0319918216179091556001949094556002929092556003805484166001600160a01b03928316179055600480549093169116179055610187565b80516001600160a01b038116811461013d57600080fd5b919050565b60008060008060808587031215610157578384fd5b845193506020850151925061016e60408601610126565b915061017c60608601610126565b905092959194509250565b61047d806101966000396000f3fe608060405234801561001057600080fd5b50600436106100a95760003560e01c8063b57ca47411610071578063b57ca47414610126578063cc03c34214610139578063dbe55e561461014c578063ef767a691461015f578063f851a44014610167578063f974c2c81461017a57600080fd5b806323249f5f146100ae5780632d3650e3146100ca578063694e91b8146100f557806384064904146100fe578063a5dcae9c14610113575b600080fd5b6100b760025481565b6040519081526020015b60405180910390f35b6004546100dd906001600160a01b031681565b6040516001600160a01b0390911681526020016100c1565b6100b760015481565b61011161010c366004610401565b610182565b005b61011161012136600461042f565b610265565b61011161013436600461042f565b6102c4565b610111610147366004610401565b610323565b6003546100dd906001600160a01b031681565b6001546100b7565b6000546100dd906001600160a01b031681565b6002546100b7565b6000546001600160a01b031633146101ed5760405162461bcd60e51b815260206004820152602360248201527f6f6e6c792061646d696e2063616e207365742070726f6d6f746572206164647260448201526265737360e81b60648201526084015b60405180910390fd5b6001600160a01b0381166102435760405162461bcd60e51b815260206004820152601860248201527f496e76616c69642070726f6d6f7465722061646472657373000000000000000060448201526064016101e4565b600480546001600160a01b0319166001600160a01b0392909216919091179055565b6000546001600160a01b031633146102bf5760405162461bcd60e51b815260206004820152601d60248201527f6f6e6c792061646d696e2063616e2073657420636f6d6d697373696f6e00000060448201526064016101e4565b600155565b6000546001600160a01b0316331461031e5760405162461bcd60e51b815260206004820152601d60248201527f6f6e6c792061646d696e2063616e2073657420636f6d6d697373696f6e00000060448201526064016101e4565b600255565b6000546001600160a01b031633146103895760405162461bcd60e51b815260206004820152602360248201527f6f6e6c792061646d696e2063616e2073657420706c6174666f726d206164647260448201526265737360e81b60648201526084016101e4565b6001600160a01b0381166103df5760405162461bcd60e51b815260206004820152601860248201527f496e76616c696420706c6174666f726d2061646472657373000000000000000060448201526064016101e4565b600380546001600160a01b0319166001600160a01b0392909216919091179055565b600060208284031215610412578081fd5b81356001600160a01b0381168114610428578182fd5b9392505050565b600060208284031215610440578081fd5b503591905056fea26469706673582212203289cacf49ca7f84414563799d7d92f9587e7364672a3dfa5800eef23e76480764736f6c63430008040033",
  "immutableReferences": {},
  "source": "// SPDX-License-Identifier: MIT\r\npragma solidity ^0.8.0;\r\n\r\ncontract CommissionManager {\r\n    address public admin;\r\n    uint256 public platformCommission;\r\n    uint256 public promoterCommission;\r\n    address public platformAddress;\r\n    address public promoterAddress;\r\n\r\n    constructor(\r\n        uint256 _platformCommission,\r\n        uint256 _promoterCommission,\r\n        address _platformAddress,\r\n        address _promoterAddress\r\n    ) {\r\n        require(_platformAddress != address(0), \"Invalid platform address\");\r\n        require(_promoterAddress != address(0), \"Invalid promoter address\");\r\n\r\n        admin = msg.sender;\r\n        platformCommission = _platformCommission;\r\n        promoterCommission = _promoterCommission;\r\n        platformAddress = _platformAddress;\r\n        promoterAddress = _promoterAddress;\r\n    }\r\n\r\n    function setPlatformCommission(uint256 newCommission) external {\r\n        require(msg.sender == admin, 'only admin can set commission');\r\n        platformCommission = newCommission;\r\n    }\r\n\r\n    function setPromoterCommission(uint256 newCommission) external {\r\n        require(msg.sender == admin, 'only admin can set commission');\r\n        promoterCommission = newCommission;\r\n    }\r\n\r\n    function setPlatformAddress(address newAddress) external {\r\n        require(msg.sender == admin, 'only admin can set platform address');\r\n        require(newAddress != address(0), \"Invalid platform address\");\r\n        platformAddress = newAddress;\r\n    }\r\n\r\n    function setPromoterAddress(address newAddress) external {\r\n        require(msg.sender == admin, 'only admin can set promoter address');\r\n        require(newAddress != address(0), \"Invalid promoter address\");\r\n        promoterAddress = newAddress;\r\n    }\r\n\r\n    function getPlatformCommission() external view returns (uint256) {\r\n        return platformCommission;\r\n    }\r\n\r\n    function getPromoterCommission() external view returns (uint256) {\r\n        return promoterCommission;\r\n    }\r\n}\r\n",
  "sourcePath": "C:\\blockchain\\recursos\\contract\\contracts\\CommissionManager.sol",
  "compiler": {
    "name": "solc",
    "version": "0.8.4+commit.c7e474f2.Emscripten.clang"
  },
  "schemaVersion": "3.4.16",
  "updatedAt": "2024-06-26T19:22:08.760Z",
  "networkType": "ethereum",
  "devdoc": {
    "kind": "dev",
    "methods": {},
    "version": 1
  },
  "userdoc": {
    "kind": "user",
    "methods": {},
    "version": 1
  }
}