{
  "contractName": "ContractManager",
  "abi": [
    {
      "inputs": [
        {
          "internalType": "address",
          "name": "propertyMarketplaceAddress",
          "type": "address"
        },
        {
          "internalType": "address",
          "name": "tokenFactoryAddress",
          "type": "address"
        },
        {
          "internalType": "address",
          "name": "transactionHandlerAddress",
          "type": "address"
        },
        {
          "internalType": "uint256",
          "name": "platformCommission",
          "type": "uint256"
        },
        {
          "internalType": "uint256",
          "name": "promoterCommission",
          "type": "uint256"
        },
        {
          "internalType": "address",
          "name": "platformAddress",
          "type": "address"
        },
        {
          "internalType": "address",
          "name": "promoterAddress",
          "type": "address"
        }
      ],
      "stateMutability": "nonpayable",
      "type": "constructor"
    },
    {
      "inputs": [],
      "name": "accessControl",
      "outputs": [
        {
          "internalType": "contract AccessControl",
          "name": "",
          "type": "address"
        }
      ],
      "stateMutability": "view",
      "type": "function",
      "constant": true
    },
    {
      "inputs": [],
      "name": "commissionManager",
      "outputs": [
        {
          "internalType": "contract CommissionManager",
          "name": "",
          "type": "address"
        }
      ],
      "stateMutability": "view",
      "type": "function",
      "constant": true
    },
    {
      "inputs": [],
      "name": "marketplace",
      "outputs": [
        {
          "internalType": "contract Marketplace",
          "name": "",
          "type": "address"
        }
      ],
      "stateMutability": "view",
      "type": "function",
      "constant": true
    },
    {
      "inputs": [],
      "name": "tokenFactory",
      "outputs": [
        {
          "internalType": "contract TokenFactory",
          "name": "",
          "type": "address"
        }
      ],
      "stateMutability": "view",
      "type": "function",
      "constant": true
    },
    {
      "inputs": [],
      "name": "transactionHandler",
      "outputs": [
        {
          "internalType": "contract TransactionHandler",
          "name": "",
          "type": "address"
        }
      ],
      "stateMutability": "view",
      "type": "function",
      "constant": true
    }
  ],
  "bytecode": "0x608060405234801561001057600080fd5b506040516114dd3803806114dd83398101604081905261002f91610208565b600080546001600160a01b0319166001600160a01b038816179055604051610056906101b8565b604051809103906000f080158015610072573d6000803e3d6000fd5b50600160006101000a8154816001600160a01b0302191690836001600160a01b03160217905550838383836040516100a9906101c5565b93845260208401929092526001600160a01b039081166040840152166060820152608001604051809103906000f0801580156100e9573d6000803e3d6000fd5b50600280546001600160a01b0319166001600160a01b03929092169182179055604051610115906101d2565b6001600160a01b039091168152602001604051809103906000f080158015610141573d6000803e3d6000fd5b50600380546001600160a01b0319166001600160a01b039290921691909117905560405161016e906101df565b604051809103906000f08015801561018a573d6000803e3d6000fd5b50600480546001600160a01b0319166001600160a01b03929092169190911790555061027f95505050505050565b61061b8061038f83390190565b610613806109aa83390190565b6102f780610fbd83390190565b610229806112b483390190565b80516001600160a01b038116811461020357600080fd5b919050565b600080600080600080600060e0888a031215610222578283fd5b61022b886101ec565b9650610239602089016101ec565b9550610247604089016101ec565b9450606088015193506080880151925061026360a089016101ec565b915061027160c089016101ec565b905092959891949750929550565b6101018061028e6000396000f3fe6080604052348015600f57600080fd5b506004361060505760003560e01c80630ef51d0d14605557806313007d55146083578063260bd4fc146095578063abc8c7af1460a7578063e77772fe1460b9575b600080fd5b6002546067906001600160a01b031681565b6040516001600160a01b03909116815260200160405180910390f35b6004546067906001600160a01b031681565b6003546067906001600160a01b031681565b6001546067906001600160a01b031681565b6000546067906001600160a01b03168156fea26469706673582212201830ecebe5e737453f6ccc1178130c3f0003981d8fed9fd31b984779dfaa1db064736f6c63430008040033608060405234801561001057600080fd5b50600080546001600160a01b031916331790556105e9806100326000396000f3fe60806040526004361061003f5760003560e01c80632d296bf114610044578063d187918014610059578063de74e57b14610079578063f851a440146100c9575b600080fd5b610057610052366004610536565b610101565b005b34801561006557600080fd5b5061005761007436600461054e565b61038a565b34801561008557600080fd5b50610099610094366004610536565b6104f0565b604080519485526001600160a01b0393841660208601528401919091521660608201526080015b60405180910390f35b3480156100d557600080fd5b506000546100e9906001600160a01b031681565b6040516001600160a01b0390911681526020016100c0565b60006001828154811061012457634e487b7160e01b600052603260045260246000fd5b60009182526020918290206040805160808101825260049093029091018054835260018101546001600160a01b0390811694840194909452600281015491830182905260030154909216606082015291503410156101bf5760405162461bcd60e51b8152602060048201526014602482015273125b9cdd59999a58da595b9d081c185e5b595b9d60621b604482015260640160405180910390fd5b602081015181516040516323b872dd60e01b815230600482015233602482015260448101919091526001600160a01b03909116906323b872dd90606401600060405180830381600087803b15801561021657600080fd5b505af115801561022a573d6000803e3d6000fd5b5050505080606001516001600160a01b03166108fc82604001519081150290604051600060405180830381858888f1935050505015801561026f573d6000803e3d6000fd5b506001805461027f908290610590565b8154811061029d57634e487b7160e01b600052603260045260246000fd5b9060005260206000209060040201600183815481106102cc57634e487b7160e01b600052603260045260246000fd5b60009182526020909120825460049092020190815560018083015481830180546001600160a01b03199081166001600160a01b039384161790915560028086015490850155600394850154949093018054909316931692909217905580548061034557634e487b7160e01b600052603160045260246000fd5b6000828152602081206004600019909301928302018181556001810180546001600160a01b031990811690915560028201929092556003018054909116905590555050565b6040516323b872dd60e01b8152336004820152306024820152604481018490526001600160a01b038316906323b872dd90606401600060405180830381600087803b1580156103d857600080fd5b505af11580156103ec573d6000803e3d6000fd5b5050604080516080810182529586526001600160a01b0394851660208701908152908601938452336060870190815260018054808201825560009190915296517fb10e2d527612073b26eecdfd717e6a320cf44b4afac2b0732d9fcbe2b7fa0cf660049098029788015590517fb10e2d527612073b26eecdfd717e6a320cf44b4afac2b0732d9fcbe2b7fa0cf7870180546001600160a01b031990811692881692909217905593517fb10e2d527612073b26eecdfd717e6a320cf44b4afac2b0732d9fcbe2b7fa0cf8870155517fb10e2d527612073b26eecdfd717e6a320cf44b4afac2b0732d9fcbe2b7fa0cf99095018054909316949093169390931790555050565b6001818154811061050057600080fd5b600091825260209091206004909102018054600182015460028301546003909301549193506001600160a01b0390811692911684565b600060208284031215610547578081fd5b5035919050565b600080600060608486031215610562578182fd5b8335925060208401356001600160a01b038116811461057f578283fd5b929592945050506040919091013590565b6000828210156105ae57634e487b7160e01b81526011600452602481fd5b50039056fea2646970667358221220da9b91fb163a9fcb26c291858ccea1af8e0ea54346cde1ec228aff68fdae88ff64736f6c63430008040033608060405234801561001057600080fd5b5060405161061338038061061383398101604081905261002f91610142565b6001600160a01b03821661008a5760405162461bcd60e51b815260206004820152601860248201527f496e76616c696420706c6174666f726d2061646472657373000000000000000060448201526064015b60405180910390fd5b6001600160a01b0381166100e05760405162461bcd60e51b815260206004820152601860248201527f496e76616c69642070726f6d6f746572206164647265737300000000000000006044820152606401610081565b60008054336001600160a01b0319918216179091556001949094556002929092556003805484166001600160a01b03928316179055600480549093169116179055610187565b80516001600160a01b038116811461013d57600080fd5b919050565b60008060008060808587031215610157578384fd5b845193506020850151925061016e60408601610126565b915061017c60608601610126565b905092959194509250565b61047d806101966000396000f3fe608060405234801561001057600080fd5b50600436106100a95760003560e01c8063b57ca47411610071578063b57ca47414610126578063cc03c34214610139578063dbe55e561461014c578063ef767a691461015f578063f851a44014610167578063f974c2c81461017a57600080fd5b806323249f5f146100ae5780632d3650e3146100ca578063694e91b8146100f557806384064904146100fe578063a5dcae9c14610113575b600080fd5b6100b760025481565b6040519081526020015b60405180910390f35b6004546100dd906001600160a01b031681565b6040516001600160a01b0390911681526020016100c1565b6100b760015481565b61011161010c366004610401565b610182565b005b61011161012136600461042f565b610265565b61011161013436600461042f565b6102c4565b610111610147366004610401565b610323565b6003546100dd906001600160a01b031681565b6001546100b7565b6000546100dd906001600160a01b031681565b6002546100b7565b6000546001600160a01b031633146101ed5760405162461bcd60e51b815260206004820152602360248201527f6f6e6c792061646d696e2063616e207365742070726f6d6f746572206164647260448201526265737360e81b60648201526084015b60405180910390fd5b6001600160a01b0381166102435760405162461bcd60e51b815260206004820152601860248201527f496e76616c69642070726f6d6f7465722061646472657373000000000000000060448201526064016101e4565b600480546001600160a01b0319166001600160a01b0392909216919091179055565b6000546001600160a01b031633146102bf5760405162461bcd60e51b815260206004820152601d60248201527f6f6e6c792061646d696e2063616e2073657420636f6d6d697373696f6e00000060448201526064016101e4565b600155565b6000546001600160a01b0316331461031e5760405162461bcd60e51b815260206004820152601d60248201527f6f6e6c792061646d696e2063616e2073657420636f6d6d697373696f6e00000060448201526064016101e4565b600255565b6000546001600160a01b031633146103895760405162461bcd60e51b815260206004820152602360248201527f6f6e6c792061646d696e2063616e2073657420706c6174666f726d206164647260448201526265737360e81b60648201526084016101e4565b6001600160a01b0381166103df5760405162461bcd60e51b815260206004820152601860248201527f496e76616c696420706c6174666f726d2061646472657373000000000000000060448201526064016101e4565b600380546001600160a01b0319166001600160a01b0392909216919091179055565b600060208284031215610412578081fd5b81356001600160a01b0381168114610428578182fd5b9392505050565b600060208284031215610440578081fd5b503591905056fea26469706673582212203289cacf49ca7f84414563799d7d92f9587e7364672a3dfa5800eef23e76480764736f6c63430008040033608060405234801561001057600080fd5b506040516102f73803806102f783398101604081905261002f91610054565b600080546001600160a01b0319166001600160a01b0392909216919091179055610082565b600060208284031215610065578081fd5b81516001600160a01b038116811461007b578182fd5b9392505050565b610266806100916000396000f3fe608060405234801561001057600080fd5b50600436106100365760003560e01c80630ef51d0d1461003b578063cdb28c171461006a575b600080fd5b60005461004e906001600160a01b031681565b6040516001600160a01b03909116815260200160405180910390f35b61007d6100783660046101b5565b61007f565b005b6000805460408051630d29d23760e31b815290516064926001600160a01b03169163694e91b8916004808301926020929190829003018186803b1580156100c557600080fd5b505afa1580156100d9573d6000803e3d6000fd5b505050506040513d601f19601f820116820180604052508101906100fd91906101cd565b6101079084610205565b61011191906101e5565b90506000606460008054906101000a90046001600160a01b03166001600160a01b03166323249f5f6040518163ffffffff1660e01b815260040160206040518083038186803b15801561016357600080fd5b505afa158015610177573d6000803e3d6000fd5b505050506040513d601f19601f8201168201806040525081019061019b91906101cd565b6101a59085610205565b6101af91906101e5565b50505050565b6000602082840312156101c6578081fd5b5035919050565b6000602082840312156101de578081fd5b5051919050565b60008261020057634e487b7160e01b81526012600452602481fd5b500490565b600081600019048311821515161561022b57634e487b7160e01b81526011600452602481fd5b50029056fea26469706673582212207af13a2f5a02819b2c4efa8e7552e4efcd156d64af064c75df3683e1e218520a64736f6c63430008040033608060405234801561001057600080fd5b50336000908152602081905260409020805460ff191660011790556101ef8061003a6000396000f3fe608060405234801561001057600080fd5b50600436106100415760003560e01c80631785f53c14610046578063429b62e51461005b5780637048027514610092575b600080fd5b61005961005436600461018b565b6100a5565b005b61007e61006936600461018b565b60006020819052908152604090205460ff1681565b604051901515815260200160405180910390f35b6100596100a036600461018b565b610119565b3360009081526020819052604090205460ff166100f85760405162461bcd60e51b815260206004820152600c60248201526b2737ba1030b71030b236b4b760a11b60448201526064015b60405180910390fd5b6001600160a01b03166000908152602081905260409020805460ff19169055565b3360009081526020819052604090205460ff166101675760405162461bcd60e51b815260206004820152600c60248201526b2737ba1030b71030b236b4b760a11b60448201526064016100ef565b6001600160a01b03166000908152602081905260409020805460ff19166001179055565b60006020828403121561019c578081fd5b81356001600160a01b03811681146101b2578182fd5b939250505056fea264697066735822122035b4bde32406e9c516995737bb2c9f520dd4de84f71122e08f7a35a0e6ad834364736f6c63430008040033",
  "immutableReferences": {},
  "source": "// SPDX-License-Identifier: MIT\r\npragma solidity ^0.8.0;\r\n\r\nimport \"./TokenFactory.sol\";\r\nimport \"./Marketplace.sol\";\r\nimport \"./CommissionManager.sol\";\r\nimport \"./TransactionHandler.sol\";\r\nimport \"./AccessControl.sol\";\r\n\r\ncontract ContractManager {\r\n    TokenFactory public tokenFactory;\r\n    Marketplace public marketplace;\r\n    CommissionManager public commissionManager;\r\n    TransactionHandler public transactionHandler;\r\n    AccessControl public accessControl;\r\n\r\n    constructor(\r\n        address propertyMarketplaceAddress,\r\n        address tokenFactoryAddress,\r\n        address transactionHandlerAddress,\r\n        uint256 platformCommission,\r\n        uint256 promoterCommission,\r\n        address platformAddress, \r\n        address promoterAddress\r\n    ) {\r\n        tokenFactory = TokenFactory(tokenFactoryAddress);\r\n        marketplace = new Marketplace();\r\n        commissionManager = new CommissionManager(\r\n            platformCommission, \r\n            promoterCommission, \r\n            platformAddress, \r\n            promoterAddress\r\n        );\r\n        transactionHandler = new TransactionHandler(address(commissionManager));\r\n        accessControl = new AccessControl();\r\n    }\r\n}\r\n",
  "sourcePath": "C:\\blockchain\\recursos\\contract\\contracts\\ContractManager.sol",
  "compiler": {
    "name": "solc",
    "version": "0.8.4+commit.c7e474f2.Emscripten.clang"
  },
  "schemaVersion": "3.4.16",
  "updatedAt": "2024-06-26T19:22:09.335Z",
  "networkType": "ethereum",
  "devdoc": {
    "kind": "dev",
    "methods": {},
    "version": 1
  },
  "userdoc": {
    "kind": "user",
    "methods": {},
    "version": 1
  }
}