{
  "contractName": "PaymentProcessor",
  "abi": [
    {
      "inputs": [],
      "stateMutability": "nonpayable",
      "type": "constructor"
    },
    {
      "anonymous": false,
      "inputs": [
        {
          "indexed": true,
          "internalType": "address",
          "name": "payer",
          "type": "address"
        },
        {
          "indexed": false,
          "internalType": "uint256",
          "name": "amount",
          "type": "uint256"
        },
        {
          "indexed": false,
          "internalType": "uint256",
          "name": "timestamp",
          "type": "uint256"
        }
      ],
      "name": "PaymentReceived",
      "type": "event"
    },
    {
      "anonymous": false,
      "inputs": [
        {
          "indexed": true,
          "internalType": "address",
          "name": "payer",
          "type": "address"
        },
        {
          "indexed": false,
          "internalType": "uint256",
          "name": "amount",
          "type": "uint256"
        },
        {
          "indexed": false,
          "internalType": "uint256",
          "name": "timestamp",
          "type": "uint256"
        }
      ],
      "name": "PaymentRefunded",
      "type": "event"
    },
    {
      "inputs": [],
      "name": "owner",
      "outputs": [
        {
          "internalType": "address",
          "name": "",
          "type": "address"
        }
      ],
      "stateMutability": "view",
      "type": "function",
      "constant": true
    },
    {
      "inputs": [],
      "name": "processPayment",
      "outputs": [],
      "stateMutability": "payable",
      "type": "function",
      "payable": true
    },
    {
      "inputs": [
        {
          "internalType": "address payable",
          "name": "payer",
          "type": "address"
        },
        {
          "internalType": "uint256",
          "name": "amount",
          "type": "uint256"
        }
      ],
      "name": "refundPayment",
      "outputs": [],
      "stateMutability": "nonpayable",
      "type": "function"
    }
  ],
  "bytecode": "0x608060405234801561001057600080fd5b50600080546001600160a01b031916331790556102c6806100326000396000f3fe6080604052600436106100345760003560e01c806322081c12146100395780638ac5752e146100435780638da5cb5b14610063575b600080fd5b61004161009f565b005b34801561004f57600080fd5b5061004161005e366004610258565b610130565b34801561006f57600080fd5b50600054610083906001600160a01b031681565b6040516001600160a01b03909116815260200160405180910390f35b600034116100f45760405162461bcd60e51b815260206004820152601e60248201527f5061796d656e74206d7573742062652067726561746572207468616e2030000060448201526064015b60405180910390fd5b6040805134815242602082015233917f5677b5d4cf976ac32defbd95a6a5aaf0d1fee450a11fc26f3c11aae6e6c33d06910160405180910390a2565b6000546001600160a01b0316331461018a5760405162461bcd60e51b815260206004820152601e60248201527f4f6e6c79206f776e65722063616e20726566756e64207061796d656e7473000060448201526064016100eb565b804710156101da5760405162461bcd60e51b815260206004820152601d60248201527f496e73756666696369656e7420636f6e74726163742062616c616e636500000060448201526064016100eb565b6040516001600160a01b0383169082156108fc029083906000818181858888f19350505050158015610210573d6000803e3d6000fd5b50604080518281524260208201526001600160a01b038416917f56129eb71c07e373d71c6e7b802303601e3d27c8bdec53182f404dbfa32e8790910160405180910390a25050565b6000806040838503121561026b57600080fd5b82356001600160a01b038116811461028257600080fd5b94602093909301359350505056fea26469706673582212202e93b88d84355b10a83aef84c708248dceb35ab02f4472801c67bc70d22b005964736f6c63430008120033",
  "immutableReferences": {},
  "source": "// SPDX-License-Identifier: MIT\npragma solidity ^0.8.0;\n\ncontract PaymentProcessor {\n    address public owner;\n\n    event PaymentReceived(address indexed payer, uint256 amount, uint256 timestamp);\n    event PaymentRefunded(address indexed payer, uint256 amount, uint256 timestamp);\n\n    constructor() {\n        owner = msg.sender;\n    }\n\n    function processPayment() external payable {\n        require(msg.value > 0, \"Payment must be greater than 0\");\n        emit PaymentReceived(msg.sender, msg.value, block.timestamp);\n    }\n\n    function refundPayment(address payable payer, uint256 amount) external {\n        require(msg.sender == owner, \"Only owner can refund payments\");\n        require(address(this).balance >= amount, \"Insufficient contract balance\");\n\n        payer.transfer(amount);\n        emit PaymentRefunded(payer, amount, block.timestamp);\n    }\n}\n",
  "sourcePath": "C:\\blockchain\\recursos\\contract\\contracts\\PaymentProcessor.sol",
  "compiler": {
    "name": "solc",
    "version": "0.8.18+commit.87f61d96.Emscripten.clang"
  },
  "schemaVersion": "3.4.16",
  "updatedAt": "2024-07-05T19:03:51.567Z",
  "networkType": "ethereum",
  "devdoc": {
    "kind": "dev",
    "methods": {},
    "version": 1
  },
  "userdoc": {
    "kind": "user",
    "methods": {},
    "version": 1
  }
}