{
  "contractName": "TokenFactory",
  "abi": [
    {
      "anonymous": false,
      "inputs": [
        {
          "indexed": true,
          "internalType": "address",
          "name": "previousOwner",
          "type": "address"
        },
        {
          "indexed": true,
          "internalType": "address",
          "name": "newOwner",
          "type": "address"
        }
      ],
      "name": "OwnershipTransferred",
      "type": "event"
    },
    {
      "anonymous": false,
      "inputs": [
        {
          "indexed": false,
          "internalType": "address",
          "name": "tokenAddress",
          "type": "address"
        }
      ],
      "name": "PropertyTokenCreated",
      "type": "event"
    },
    {
      "inputs": [],
      "name": "owner",
      "outputs": [
        {
          "internalType": "address",
          "name": "",
          "type": "address"
        }
      ],
      "stateMutability": "view",
      "type": "function",
      "constant": true
    },
    {
      "inputs": [],
      "name": "propertyTokenAddress",
      "outputs": [
        {
          "internalType": "address",
          "name": "",
          "type": "address"
        }
      ],
      "stateMutability": "view",
      "type": "function",
      "constant": true
    },
    {
      "inputs": [],
      "name": "renounceOwnership",
      "outputs": [],
      "stateMutability": "nonpayable",
      "type": "function"
    },
    {
      "inputs": [
        {
          "internalType": "address",
          "name": "newOwner",
          "type": "address"
        }
      ],
      "name": "transferOwnership",
      "outputs": [],
      "stateMutability": "nonpayable",
      "type": "function"
    },
    {
      "inputs": [],
      "name": "createPropertyToken",
      "outputs": [],
      "stateMutability": "nonpayable",
      "type": "function"
    }
  ],
  "bytecode": "0x608060405234801561001057600080fd5b5061001a3361001f565b61006f565b600080546001600160a01b038381166001600160a01b0319831681178455604051919092169283917f8be0079c531659141344cd1fd0a4f28419497f9722a3daafe3b4186f6b6457e09190a35050565b611bfe8061007e6000396000f3fe608060405234801561001057600080fd5b50600436106100575760003560e01c8063072055d11461005c5780633ab5245614610066578063715018a6146100955780638da5cb5b1461009d578063f2fde38b146100ae575b600080fd5b6100646100c1565b005b600154610079906001600160a01b031681565b6040516001600160a01b03909116815260200160405180910390f35b6100646101d0565b6000546001600160a01b0316610079565b6100646100bc3660046102fe565b610206565b6000546001600160a01b031633146100f45760405162461bcd60e51b81526004016100eb9061032c565b60405180910390fd5b6000604051610102906102f1565b604051809103906000f08015801561011e573d6000803e3d6000fd5b5060405163f2fde38b60e01b81523360048201529091506001600160a01b0382169063f2fde38b90602401600060405180830381600087803b15801561016357600080fd5b505af1158015610177573d6000803e3d6000fd5b5050600180546001600160a01b0319166001600160a01b0385169081179091556040519081527fc312d84f8b9f3f3f8fc97421b6025a269c78afbaeb4696525127be7d4b6792549250602001905060405180910390a150565b6000546001600160a01b031633146101fa5760405162461bcd60e51b81526004016100eb9061032c565b61020460006102a1565b565b6000546001600160a01b031633146102305760405162461bcd60e51b81526004016100eb9061032c565b6001600160a01b0381166102955760405162461bcd60e51b815260206004820152602660248201527f4f776e61626c653a206e6577206f776e657220697320746865207a65726f206160448201526564647265737360d01b60648201526084016100eb565b61029e816102a1565b50565b600080546001600160a01b038381166001600160a01b0319831681178455604051919092169283917f8be0079c531659141344cd1fd0a4f28419497f9722a3daafe3b4186f6b6457e09190a35050565b6118678061036283390190565b60006020828403121561030f578081fd5b81356001600160a01b0381168114610325578182fd5b9392505050565b6020808252818101527f4f776e61626c653a2063616c6c6572206973206e6f7420746865206f776e657260408201526060019056fe60806040523480156200001157600080fd5b50604080518082018252600d81526c283937b832b93a3caa37b5b2b760991b602080830191825283518085019094526004845263282a25a760e11b9084015281519192916200006391600091620000f7565b50805162000079906001906020840190620000f7565b5050506200009662000090620000a160201b60201c565b620000a5565b6000600755620001da565b3390565b600680546001600160a01b038381166001600160a01b0319831681179093556040519116919082907f8be0079c531659141344cd1fd0a4f28419497f9722a3daafe3b4186f6b6457e090600090a35050565b82805462000105906200019d565b90600052602060002090601f01602090048101928262000129576000855562000174565b82601f106200014457805160ff191683800117855562000174565b8280016001018555821562000174579182015b828111156200017457825182559160200191906001019062000157565b506200018292915062000186565b5090565b5b8082111562000182576000815560010162000187565b600181811c90821680620001b257607f821691505b60208210811415620001d457634e487b7160e01b600052602260045260246000fd5b50919050565b61167d80620001ea6000396000f3fe608060405234801561001057600080fd5b50600436106101165760003560e01c8063715018a6116100a2578063a22cb46511610071578063a22cb4651461022f578063b88d4fde14610242578063c87b56dd14610255578063e985e9c514610268578063f2fde38b146102a457600080fd5b8063715018a61461020557806375794a3c1461020d5780638da5cb5b1461021657806395d89b411461022757600080fd5b806323b872dd116100e957806323b872dd1461019857806342842e0e146101ab5780636352211e146101be5780636a627842146101d157806370a08231146101e457600080fd5b806301ffc9a71461011b57806306fdde0314610143578063081812fc14610158578063095ea7b314610183575b600080fd5b61012e610129366004611343565b6102b7565b60405190151581526020015b60405180910390f35b61014b610309565b60405161013a919061142b565b61016b61016636600461137b565b61039b565b6040516001600160a01b03909116815260200161013a565b61019661019136600461131a565b610435565b005b6101966101a63660046111d0565b61054b565b6101966101b93660046111d0565b61057c565b61016b6101cc36600461137b565b610597565b6101966101df366004611184565b61060e565b6101f76101f2366004611184565b6106a2565b60405190815260200161013a565b610196610729565b6101f760075481565b6006546001600160a01b031661016b565b61014b61075f565b61019661023d3660046112e0565b61076e565b61019661025036600461120b565b61077d565b61014b61026336600461137b565b6107b5565b61012e61027636600461119e565b6001600160a01b03918216600090815260056020908152604080832093909416825291909152205460ff1690565b6101966102b2366004611184565b6108c2565b60006001600160e01b031982166380ac58cd60e01b14806102e857506001600160e01b03198216635b5e139f60e01b145b8061030357506301ffc9a760e01b6001600160e01b03198316145b92915050565b60606000805461031890611585565b80601f016020809104026020016040519081016040528092919081815260200182805461034490611585565b80156103915780601f1061036657610100808354040283529160200191610391565b820191906000526020600020905b81548152906001019060200180831161037457829003601f168201915b5050505050905090565b6000818152600260205260408120546001600160a01b03166104195760405162461bcd60e51b815260206004820152602c60248201527f4552433732313a20617070726f76656420717565727920666f72206e6f6e657860448201526b34b9ba32b73a103a37b5b2b760a11b60648201526084015b60405180910390fd5b506000908152600460205260409020546001600160a01b031690565b600061044082610597565b9050806001600160a01b0316836001600160a01b031614156104ae5760405162461bcd60e51b815260206004820152602160248201527f4552433732313a20617070726f76616c20746f2063757272656e74206f776e656044820152603960f91b6064820152608401610410565b336001600160a01b03821614806104ca57506104ca8133610276565b61053c5760405162461bcd60e51b815260206004820152603860248201527f4552433732313a20617070726f76652063616c6c6572206973206e6f74206f7760448201527f6e6572206e6f7220617070726f76656420666f7220616c6c00000000000000006064820152608401610410565b610546838361095d565b505050565b61055533826109cb565b6105715760405162461bcd60e51b8152600401610410906114c5565b610546838383610ac2565b6105468383836040518060200160405280600081525061077d565b6000818152600260205260408120546001600160a01b0316806103035760405162461bcd60e51b815260206004820152602960248201527f4552433732313a206f776e657220717565727920666f72206e6f6e657869737460448201526832b73a103a37b5b2b760b91b6064820152608401610410565b6006546001600160a01b031633146106385760405162461bcd60e51b815260040161041090611490565b61064481600754610c5e565b600754604080516001600160a01b038416815260208101929092527fb9144c96c86541f6fa89c9f2f02495cccf4b08cd6643e26d34ee00aa586558a8910160405180910390a16007805490600061069a836115c0565b919050555050565b60006001600160a01b03821661070d5760405162461bcd60e51b815260206004820152602a60248201527f4552433732313a2062616c616e636520717565727920666f7220746865207a65604482015269726f206164647265737360b01b6064820152608401610410565b506001600160a01b031660009081526003602052604090205490565b6006546001600160a01b031633146107535760405162461bcd60e51b815260040161041090611490565b61075d6000610c78565b565b60606001805461031890611585565b610779338383610cca565b5050565b61078733836109cb565b6107a35760405162461bcd60e51b8152600401610410906114c5565b6107af84848484610d99565b50505050565b6000818152600260205260409020546060906001600160a01b03166108345760405162461bcd60e51b815260206004820152602f60248201527f4552433732314d657461646174613a2055524920717565727920666f72206e6f60448201526e3732bc34b9ba32b73a103a37b5b2b760891b6064820152608401610410565b600061087060408051808201909152601e81527f68747470733a2f2f6578616d706c652e636f6d2f6170692f746f6b656e2f0000602082015290565b9050600081511161089057604051806020016040528060008152506108bb565b8061089a84610dcc565b6040516020016108ab9291906113bf565b6040516020818303038152906040525b9392505050565b6006546001600160a01b031633146108ec5760405162461bcd60e51b815260040161041090611490565b6001600160a01b0381166109515760405162461bcd60e51b815260206004820152602660248201527f4f776e61626c653a206e6577206f776e657220697320746865207a65726f206160448201526564647265737360d01b6064820152608401610410565b61095a81610c78565b50565b600081815260046020526040902080546001600160a01b0319166001600160a01b038416908117909155819061099282610597565b6001600160a01b03167f8c5be1e5ebec7d5bd14f71427d1e84f3dd0314c0f7b2291e5b200ac8c7c3b92560405160405180910390a45050565b6000818152600260205260408120546001600160a01b0316610a445760405162461bcd60e51b815260206004820152602c60248201527f4552433732313a206f70657261746f7220717565727920666f72206e6f6e657860448201526b34b9ba32b73a103a37b5b2b760a11b6064820152608401610410565b6000610a4f83610597565b9050806001600160a01b0316846001600160a01b03161480610a8a5750836001600160a01b0316610a7f8461039b565b6001600160a01b0316145b80610aba57506001600160a01b0380821660009081526005602090815260408083209388168352929052205460ff165b949350505050565b826001600160a01b0316610ad582610597565b6001600160a01b031614610b395760405162461bcd60e51b815260206004820152602560248201527f4552433732313a207472616e736665722066726f6d20696e636f72726563742060448201526437bbb732b960d91b6064820152608401610410565b6001600160a01b038216610b9b5760405162461bcd60e51b8152602060048201526024808201527f4552433732313a207472616e7366657220746f20746865207a65726f206164646044820152637265737360e01b6064820152608401610410565b610ba660008261095d565b6001600160a01b0383166000908152600360205260408120805460019290610bcf908490611542565b90915550506001600160a01b0382166000908152600360205260408120805460019290610bfd908490611516565b909155505060008181526002602052604080822080546001600160a01b0319166001600160a01b0386811691821790925591518493918716917fddf252ad1be2c89b69c2b068fc378daa952ba7f163c4a11628f55a4df523b3ef91a4505050565b610779828260405180602001604052806000815250610ee6565b600680546001600160a01b038381166001600160a01b0319831681179093556040519116919082907f8be0079c531659141344cd1fd0a4f28419497f9722a3daafe3b4186f6b6457e090600090a35050565b816001600160a01b0316836001600160a01b03161415610d2c5760405162461bcd60e51b815260206004820152601960248201527f4552433732313a20617070726f766520746f2063616c6c6572000000000000006044820152606401610410565b6001600160a01b03838116600081815260056020908152604080832094871680845294825291829020805460ff191686151590811790915591519182527f17307eab39ab6107e8899845ad3d59bd9653f200f220920489ca2b5937696c31910160405180910390a3505050565b610da4848484610ac2565b610db084848484610f19565b6107af5760405162461bcd60e51b81526004016104109061143e565b606081610df05750506040805180820190915260018152600360fc1b602082015290565b8160005b8115610e1a5780610e04816115c0565b9150610e139050600a8361152e565b9150610df4565b60008167ffffffffffffffff811115610e4357634e487b7160e01b600052604160045260246000fd5b6040519080825280601f01601f191660200182016040528015610e6d576020820181803683370190505b5090505b8415610aba57610e82600183611542565b9150610e8f600a866115db565b610e9a906030611516565b60f81b818381518110610ebd57634e487b7160e01b600052603260045260246000fd5b60200101906001600160f81b031916908160001a905350610edf600a8661152e565b9450610e71565b610ef08383611026565b610efd6000848484610f19565b6105465760405162461bcd60e51b81526004016104109061143e565b60006001600160a01b0384163b1561101b57604051630a85bd0160e11b81526001600160a01b0385169063150b7a0290610f5d9033908990889088906004016113ee565b602060405180830381600087803b158015610f7757600080fd5b505af1925050508015610fa7575060408051601f3d908101601f19168201909252610fa49181019061135f565b60015b611001573d808015610fd5576040519150601f19603f3d011682016040523d82523d6000602084013e610fda565b606091505b508051610ff95760405162461bcd60e51b81526004016104109061143e565b805181602001fd5b6001600160e01b031916630a85bd0160e11b149050610aba565b506001949350505050565b6001600160a01b03821661107c5760405162461bcd60e51b815260206004820181905260248201527f4552433732313a206d696e7420746f20746865207a65726f20616464726573736044820152606401610410565b6000818152600260205260409020546001600160a01b0316156110e15760405162461bcd60e51b815260206004820152601c60248201527f4552433732313a20746f6b656e20616c7265616479206d696e746564000000006044820152606401610410565b6001600160a01b038216600090815260036020526040812080546001929061110a908490611516565b909155505060008181526002602052604080822080546001600160a01b0319166001600160a01b03861690811790915590518392907fddf252ad1be2c89b69c2b068fc378daa952ba7f163c4a11628f55a4df523b3ef908290a45050565b80356001600160a01b038116811461117f57600080fd5b919050565b600060208284031215611195578081fd5b6108bb82611168565b600080604083850312156111b0578081fd5b6111b983611168565b91506111c760208401611168565b90509250929050565b6000806000606084860312156111e4578081fd5b6111ed84611168565b92506111fb60208501611168565b9150604084013590509250925092565b60008060008060808587031215611220578081fd5b61122985611168565b935061123760208601611168565b925060408501359150606085013567ffffffffffffffff8082111561125a578283fd5b818701915087601f83011261126d578283fd5b81358181111561127f5761127f61161b565b604051601f8201601f19908116603f011681019083821181831017156112a7576112a761161b565b816040528281528a60208487010111156112bf578586fd5b82602086016020830137918201602001949094529598949750929550505050565b600080604083850312156112f2578182fd5b6112fb83611168565b91506020830135801515811461130f578182fd5b809150509250929050565b6000806040838503121561132c578182fd5b61133583611168565b946020939093013593505050565b600060208284031215611354578081fd5b81356108bb81611631565b600060208284031215611370578081fd5b81516108bb81611631565b60006020828403121561138c578081fd5b5035919050565b600081518084526113ab816020860160208601611559565b601f01601f19169290920160200192915050565b600083516113d1818460208801611559565b8351908301906113e5818360208801611559565b01949350505050565b6001600160a01b038581168252841660208201526040810183905260806060820181905260009061142190830184611393565b9695505050505050565b6020815260006108bb6020830184611393565b60208082526032908201527f4552433732313a207472616e7366657220746f206e6f6e20455243373231526560408201527131b2b4bb32b91034b6b83632b6b2b73a32b960711b606082015260800190565b6020808252818101527f4f776e61626c653a2063616c6c6572206973206e6f7420746865206f776e6572604082015260600190565b60208082526031908201527f4552433732313a207472616e736665722063616c6c6572206973206e6f74206f6040820152701ddb995c881b9bdc88185c1c1c9bdd9959607a1b606082015260800190565b60008219821115611529576115296115ef565b500190565b60008261153d5761153d611605565b500490565b600082821015611554576115546115ef565b500390565b60005b8381101561157457818101518382015260200161155c565b838111156107af5750506000910152565b600181811c9082168061159957607f821691505b602082108114156115ba57634e487b7160e01b600052602260045260246000fd5b50919050565b60006000198214156115d4576115d46115ef565b5060010190565b6000826115ea576115ea611605565b500690565b634e487b7160e01b600052601160045260246000fd5b634e487b7160e01b600052601260045260246000fd5b634e487b7160e01b600052604160045260246000fd5b6001600160e01b03198116811461095a57600080fdfea26469706673582212200abc685d19650bab82351a67c07af7b40e3c020bff5bdbc718731837a481385364736f6c63430008040033a26469706673582212205244fc2b670a69c105e7abb9b46e0010a6623861f9815712124b22145ef7388764736f6c63430008040033",
  "immutableReferences": {},
  "source": "// SPDX-License-Identifier: MIT\r\npragma solidity ^0.8.0;\r\n\r\nimport \"@openzeppelin/contracts/access/Ownable.sol\";\r\nimport \"./PropertyToken.sol\";\r\n\r\ncontract TokenFactory is Ownable {\r\n    address public propertyTokenAddress;\r\n\r\n    event PropertyTokenCreated(address tokenAddress);\r\n\r\n    function createPropertyToken() external onlyOwner {\r\n        PropertyToken newToken = new PropertyToken();\r\n        newToken.transferOwnership(msg.sender);\r\n        propertyTokenAddress = address(newToken);\r\n        emit PropertyTokenCreated(propertyTokenAddress);\r\n    }\r\n}\r\n",
  "sourcePath": "C:\\blockchain\\recursos\\contract\\contracts\\TokenFactory.sol",
  "compiler": {
    "name": "solc",
    "version": "0.8.4+commit.c7e474f2.Emscripten.clang"
  },
  "schemaVersion": "3.4.16",
  "updatedAt": "2024-06-26T19:22:09.351Z",
  "networkType": "ethereum",
  "devdoc": {
    "kind": "dev",
    "methods": {
      "owner()": {
        "details": "Returns the address of the current owner."
      },
      "renounceOwnership()": {
        "details": "Leaves the contract without owner. It will not be possible to call `onlyOwner` functions anymore. Can only be called by the current owner. NOTE: Renouncing ownership will leave the contract without an owner, thereby removing any functionality that is only available to the owner."
      },
      "transferOwnership(address)": {
        "details": "Transfers ownership of the contract to a new account (`newOwner`). Can only be called by the current owner."
      }
    },
    "version": 1
  },
  "userdoc": {
    "kind": "user",
    "methods": {},
    "version": 1
  }
}