{
  "contractName": "PropertieMarketplace",
  "abi": [
    {
      "anonymous": false,
      "inputs": [
        {
          "indexed": false,
          "internalType": "uint256",
          "name": "id",
          "type": "uint256"
        },
        {
          "indexed": false,
          "internalType": "string",
          "name": "name",
          "type": "string"
        },
        {
          "indexed": false,
          "internalType": "string",
          "name": "location",
          "type": "string"
        },
        {
          "indexed": false,
          "internalType": "uint256",
          "name": "price",
          "type": "uint256"
        },
        {
          "indexed": false,
          "internalType": "bytes32",
          "name": "proof",
          "type": "bytes32"
        },
        {
          "indexed": false,
          "internalType": "address",
          "name": "owner",
          "type": "address"
        },
        {
          "indexed": false,
          "internalType": "enum PropertieMarketplace.State",
          "name": "state",
          "type": "uint8"
        },
        {
          "indexed": false,
          "internalType": "string",
          "name": "sellerInfo",
          "type": "string"
        }
      ],
      "name": "PropertieCreated",
      "type": "event"
    },
    {
      "inputs": [],
      "name": "nextPropertieId",
      "outputs": [
        {
          "internalType": "uint256",
          "name": "",
          "type": "uint256"
        }
      ],
      "stateMutability": "view",
      "type": "function",
      "constant": true
    },
    {
      "inputs": [
        {
          "internalType": "bytes32",
          "name": "",
          "type": "bytes32"
        }
      ],
      "name": "properties",
      "outputs": [
        {
          "internalType": "uint256",
          "name": "id",
          "type": "uint256"
        },
        {
          "internalType": "string",
          "name": "name",
          "type": "string"
        },
        {
          "internalType": "string",
          "name": "location",
          "type": "string"
        },
        {
          "internalType": "uint256",
          "name": "price",
          "type": "uint256"
        },
        {
          "internalType": "bytes32",
          "name": "proof",
          "type": "bytes32"
        },
        {
          "internalType": "address",
          "name": "owner",
          "type": "address"
        },
        {
          "internalType": "enum PropertieMarketplace.State",
          "name": "state",
          "type": "uint8"
        },
        {
          "internalType": "string",
          "name": "sellerInfo",
          "type": "string"
        }
      ],
      "stateMutability": "view",
      "type": "function",
      "constant": true
    },
    {
      "inputs": [
        {
          "internalType": "string",
          "name": "name",
          "type": "string"
        },
        {
          "internalType": "string",
          "name": "location",
          "type": "string"
        },
        {
          "internalType": "uint256",
          "name": "price",
          "type": "uint256"
        },
        {
          "internalType": "bytes32",
          "name": "proof",
          "type": "bytes32"
        },
        {
          "internalType": "string",
          "name": "sellerInfo",
          "type": "string"
        }
      ],
      "name": "createPropertie",
      "outputs": [],
      "stateMutability": "nonpayable",
      "type": "function"
    }
  ],
  "bytecode": "0x608060405234801561001057600080fd5b50610d04806100206000396000f3fe608060405234801561001057600080fd5b50600436106100415760003560e01c80635a5b8dc014610046578063bd15627314610064578063ce3104461461009b575b600080fd5b61004e6100b7565b60405161005b9190610908565b60405180910390f35b61007e600480360381019061007991906106eb565b6100bd565b604051610092989796959493929190610923565b60405180910390f35b6100b560048036038101906100b09190610714565b6102ca565b005b60015481565b60006020528060005260406000206000915090508060000154908060010180546100e690610ae0565b80601f016020809104026020016040519081016040528092919081815260200182805461011290610ae0565b801561015f5780601f106101345761010080835404028352916020019161015f565b820191906000526020600020905b81548152906001019060200180831161014257829003601f168201915b50505050509080600201805461017490610ae0565b80601f01602080910402602001604051908101604052809291908181526020018280546101a090610ae0565b80156101ed5780601f106101c2576101008083540402835291602001916101ed565b820191906000526020600020905b8154815290600101906020018083116101d057829003601f168201915b5050505050908060030154908060040154908060050160009054906101000a900473ffffffffffffffffffffffffffffffffffffffff16908060050160149054906101000a900460ff169080600601805461024790610ae0565b80601f016020809104026020016040519081016040528092919081815260200182805461027390610ae0565b80156102c05780601f10610295576101008083540402835291602001916102c0565b820191906000526020600020905b8154815290600101906020018083116102a357829003601f168201915b5050505050905088565b60008585846040516020016102e1939291906108b3565b604051602081830303815290604052805190602001209050600073ffffffffffffffffffffffffffffffffffffffff1660008083815260200190815260200160002060050160009054906101000a900473ffffffffffffffffffffffffffffffffffffffff1673ffffffffffffffffffffffffffffffffffffffff161461039d576040517f08c379a0000000000000000000000000000000000000000000000000000000008152600401610394906108e8565b60405180910390fd5b60405180610100016040528060015481526020018781526020018681526020018581526020018481526020013373ffffffffffffffffffffffffffffffffffffffff16815260200160018081111561041e577f4e487b7100000000000000000000000000000000000000000000000000000000600052602160045260246000fd5b81526020018381525060008083815260200190815260200160002060008201518160000155602082015181600101908051906020019061045f9291906105b6565b50604082015181600201908051906020019061047c9291906105b6565b50606082015181600301556080820151816004015560a08201518160050160006101000a81548173ffffffffffffffffffffffffffffffffffffffff021916908373ffffffffffffffffffffffffffffffffffffffff16021790555060c08201518160050160146101000a81548160ff02191690836001811115610529577f4e487b7100000000000000000000000000000000000000000000000000000000600052602160045260246000fd5b021790555060e082015181600601908051906020019061054a9291906105b6565b509050507fbbc8fe3819fa48441a5ce5dcc968d840ee372686fe92151b4e987e7d3dee6386600154878787873360018960405161058e989796959493929190610923565b60405180910390a1600160008154809291906105a990610b43565b9190505550505050505050565b8280546105c290610ae0565b90600052602060002090601f0160209004810192826105e4576000855561062b565b82601f106105fd57805160ff191683800117855561062b565b8280016001018555821561062b579182015b8281111561062a57825182559160200191906001019061060f565b5b509050610638919061063c565b5090565b5b8082111561065557600081600090555060010161063d565b5090565b600061066c610667846109db565b6109b6565b90508281526020810184848401111561068457600080fd5b61068f848285610a9e565b509392505050565b6000813590506106a681610ca0565b92915050565b600082601f8301126106bd57600080fd5b81356106cd848260208601610659565b91505092915050565b6000813590506106e581610cb7565b92915050565b6000602082840312156106fd57600080fd5b600061070b84828501610697565b91505092915050565b600080600080600060a0868803121561072c57600080fd5b600086013567ffffffffffffffff81111561074657600080fd5b610752888289016106ac565b955050602086013567ffffffffffffffff81111561076f57600080fd5b61077b888289016106ac565b945050604061078c888289016106d6565b935050606061079d88828901610697565b925050608086013567ffffffffffffffff8111156107ba57600080fd5b6107c6888289016106ac565b9150509295509295909350565b6107dc81610a33565b82525050565b6107eb81610a45565b82525050565b6108026107fd82610a45565b610b8c565b82525050565b61081181610a8c565b82525050565b600061082282610a0c565b61082c8185610a17565b935061083c818560208601610aad565b61084581610c52565b840191505092915050565b600061085b82610a0c565b6108658185610a28565b9350610875818560208601610aad565b80840191505092915050565b600061088e601883610a17565b915061089982610c63565b602082019050919050565b6108ad81610a82565b82525050565b60006108bf8286610850565b91506108cb8285610850565b91506108d782846107f1565b602082019150819050949350505050565b6000602082019050818103600083015261090181610881565b9050919050565b600060208201905061091d60008301846108a4565b92915050565b600061010082019050610939600083018b6108a4565b818103602083015261094b818a610817565b9050818103604083015261095f8189610817565b905061096e60608301886108a4565b61097b60808301876107e2565b61098860a08301866107d3565b61099560c0830185610808565b81810360e08301526109a78184610817565b90509998505050505050505050565b60006109c06109d1565b90506109cc8282610b12565b919050565b6000604051905090565b600067ffffffffffffffff8211156109f6576109f5610c23565b5b6109ff82610c52565b9050602081019050919050565b600081519050919050565b600082825260208201905092915050565b600081905092915050565b6000610a3e82610a62565b9050919050565b6000819050919050565b6000819050610a5d82610c8c565b919050565b600073ffffffffffffffffffffffffffffffffffffffff82169050919050565b6000819050919050565b6000610a9782610a4f565b9050919050565b82818337600083830152505050565b60005b83811015610acb578082015181840152602081019050610ab0565b83811115610ada576000848401525b50505050565b60006002820490506001821680610af857607f821691505b60208210811415610b0c57610b0b610bf4565b5b50919050565b610b1b82610c52565b810181811067ffffffffffffffff82111715610b3a57610b39610c23565b5b80604052505050565b6000610b4e82610a82565b91507fffffffffffffffffffffffffffffffffffffffffffffffffffffffffffffffff821415610b8157610b80610b96565b5b600182019050919050565b6000819050919050565b7f4e487b7100000000000000000000000000000000000000000000000000000000600052601160045260246000fd5b7f4e487b7100000000000000000000000000000000000000000000000000000000600052602160045260246000fd5b7f4e487b7100000000000000000000000000000000000000000000000000000000600052602260045260246000fd5b7f4e487b7100000000000000000000000000000000000000000000000000000000600052604160045260246000fd5b6000601f19601f8301169050919050565b7f50726f70657274696520616c7265616479206578697374730000000000000000600082015250565b60028110610c9d57610c9c610bc5565b5b50565b610ca981610a45565b8114610cb457600080fd5b50565b610cc081610a82565b8114610ccb57600080fd5b5056fea2646970667358221220c3fa2dc371b0029a5f091a1334095a2c117e5902dae22d82ce0ce8ad77435d6364736f6c63430008040033",
  "immutableReferences": {},
  "source": "// SPDX-License-Identifier: MIT\r\npragma solidity ^0.8.0;\r\n\r\ncontract PropertieMarketplace {\r\n    enum State { Active, Deactivated }\r\n\r\n    struct Propertie {\r\n        uint256 id;\r\n        string name;\r\n        string location;\r\n        uint256 price;\r\n        bytes32 proof;\r\n        address owner;\r\n        State state;\r\n        string sellerInfo;\r\n    }\r\n\r\n    mapping(bytes32 => Propertie) public properties;\r\n    uint256 public nextPropertieId;\r\n\r\n    event PropertieCreated(\r\n        uint256 id,\r\n        string name,\r\n        string location,\r\n        uint256 price,\r\n        bytes32 proof,\r\n        address owner,\r\n        State state,\r\n        string sellerInfo\r\n    );\r\n\r\n    function createPropertie(\r\n        string memory name,\r\n        string memory location,\r\n        uint256 price,\r\n        bytes32 proof,\r\n        string memory sellerInfo\r\n    ) public {\r\n        bytes32 propertieHash = keccak256(abi.encodePacked(name, location, proof));\r\n        require(properties[propertieHash].owner == address(0), \"Propertie already exists\");\r\n\r\n        properties[propertieHash] = Propertie({\r\n            id: nextPropertieId,\r\n            name: name,\r\n            location: location,\r\n            price: price,\r\n            proof: proof,\r\n            owner: msg.sender,\r\n            state: State.Deactivated,\r\n            sellerInfo: sellerInfo\r\n        });\r\n\r\n        emit PropertieCreated(nextPropertieId, name, location, price, proof, msg.sender, State.Deactivated, sellerInfo);\r\n        nextPropertieId++;\r\n    }\r\n}\r\n",
  "sourcePath": "C:\\blockchain\\base-block-db\\contracts\\PropertieMarketplace.sol",
  "compiler": {
    "name": "solc",
    "version": "0.8.4+commit.c7e474f2.Emscripten.clang"
  },
  "schemaVersion": "3.4.16",
  "updatedAt": "2024-06-19T21:29:24.659Z",
  "networkType": "ethereum",
  "devdoc": {
    "kind": "dev",
    "methods": {},
    "version": 1
  },
  "userdoc": {
    "kind": "user",
    "methods": {},
    "version": 1
  }
}